{
  "address": "0x5FbDB2315678afecb367f032d93F642f64180aa3",
  "abi": [
    {
      "inputs": [],
      "stateMutability": "nonpayable",
      "type": "constructor"
    },
    {
      "anonymous": false,
      "inputs": [
        {
          "indexed": true,
          "internalType": "address",
          "name": "owner",
          "type": "address"
        },
        {
          "indexed": true,
          "internalType": "address",
          "name": "approved",
          "type": "address"
        },
        {
          "indexed": true,
          "internalType": "uint256",
          "name": "tokenId",
          "type": "uint256"
        }
      ],
      "name": "Approval",
      "type": "event"
    },
    {
      "anonymous": false,
      "inputs": [
        {
          "indexed": true,
          "internalType": "address",
          "name": "owner",
          "type": "address"
        },
        {
          "indexed": true,
          "internalType": "address",
          "name": "operator",
          "type": "address"
        },
        {
          "indexed": false,
          "internalType": "bool",
          "name": "approved",
          "type": "bool"
        }
      ],
      "name": "ApprovalForAll",
      "type": "event"
    },
    {
      "anonymous": false,
      "inputs": [
        {
          "indexed": true,
          "internalType": "address",
          "name": "owner",
          "type": "address"
        },
        {
          "indexed": true,
          "internalType": "uint256",
          "name": "tokenId",
          "type": "uint256"
        },
        {
          "indexed": false,
          "internalType": "uint256",
          "name": "price",
          "type": "uint256"
        }
      ],
      "name": "NftListed",
      "type": "event"
    },
    {
      "anonymous": false,
      "inputs": [
        {
          "indexed": true,
          "internalType": "address",
          "name": "owner",
          "type": "address"
        },
        {
          "indexed": true,
          "internalType": "uint256",
          "name": "tokenId",
          "type": "uint256"
        }
      ],
      "name": "NftMinted",
      "type": "event"
    },
    {
      "anonymous": false,
      "inputs": [
        {
          "indexed": true,
          "internalType": "address",
          "name": "from",
          "type": "address"
        },
        {
          "indexed": true,
          "internalType": "address",
          "name": "to",
          "type": "address"
        },
        {
          "indexed": true,
          "internalType": "uint256",
          "name": "tokenId",
          "type": "uint256"
        }
      ],
      "name": "Transfer",
      "type": "event"
    },
    {
      "inputs": [],
      "name": "_listedNfts",
      "outputs": [
        {
          "internalType": "uint256",
          "name": "_value",
          "type": "uint256"
        }
      ],
      "stateMutability": "view",
      "type": "function"
    },
    {
      "inputs": [],
      "name": "_nftId",
      "outputs": [
        {
          "internalType": "uint256",
          "name": "_value",
          "type": "uint256"
        }
      ],
      "stateMutability": "view",
      "type": "function"
    },
    {
      "inputs": [
        {
          "internalType": "address",
          "name": "to",
          "type": "address"
        },
        {
          "internalType": "uint256",
          "name": "tokenId",
          "type": "uint256"
        }
      ],
      "name": "approve",
      "outputs": [],
      "stateMutability": "nonpayable",
      "type": "function"
    },
    {
      "inputs": [
        {
          "internalType": "address",
          "name": "owner",
          "type": "address"
        }
      ],
      "name": "balanceOf",
      "outputs": [
        {
          "internalType": "uint256",
          "name": "",
          "type": "uint256"
        }
      ],
      "stateMutability": "view",
      "type": "function"
    },
    {
      "inputs": [
        {
          "internalType": "uint256",
          "name": "nftId",
          "type": "uint256"
        }
      ],
      "name": "buyNft",
      "outputs": [],
      "stateMutability": "payable",
      "type": "function"
    },
    {
      "inputs": [
        {
          "internalType": "uint256",
          "name": "nftId",
          "type": "uint256"
        }
      ],
      "name": "cancelListing",
      "outputs": [],
      "stateMutability": "nonpayable",
      "type": "function"
    },
    {
      "inputs": [
        {
          "internalType": "uint256",
          "name": "tokenId",
          "type": "uint256"
        }
      ],
      "name": "getApproved",
      "outputs": [
        {
          "internalType": "address",
          "name": "",
          "type": "address"
        }
      ],
      "stateMutability": "view",
      "type": "function"
    },
    {
      "inputs": [],
      "name": "getListedNfts",
      "outputs": [
        {
          "components": [
            {
              "internalType": "uint256",
              "name": "id",
              "type": "uint256"
            },
            {
              "internalType": "address",
              "name": "owner",
              "type": "address"
            },
            {
              "internalType": "string",
              "name": "uri",
              "type": "string"
            },
            {
              "internalType": "bool",
              "name": "isListed",
              "type": "bool"
            },
            {
              "internalType": "uint256",
              "name": "price",
              "type": "uint256"
            }
          ],
          "internalType": "struct NftMarketplace.Nft[]",
          "name": "",
          "type": "tuple[]"
        }
      ],
      "stateMutability": "view",
      "type": "function"
    },
    {
      "inputs": [
        {
          "internalType": "uint256",
          "name": "tokenId",
          "type": "uint256"
        }
      ],
      "name": "getMintedNfts",
      "outputs": [
        {
          "components": [
            {
              "internalType": "uint256",
              "name": "id",
              "type": "uint256"
            },
            {
              "internalType": "address",
              "name": "owner",
              "type": "address"
            },
            {
              "internalType": "string",
              "name": "uri",
              "type": "string"
            },
            {
              "internalType": "bool",
              "name": "isListed",
              "type": "bool"
            },
            {
              "internalType": "uint256",
              "name": "price",
              "type": "uint256"
            }
          ],
          "internalType": "struct NftMarketplace.Nft",
          "name": "",
          "type": "tuple"
        }
      ],
      "stateMutability": "view",
      "type": "function"
    },
    {
      "inputs": [
        {
          "internalType": "address",
          "name": "owner",
          "type": "address"
        }
      ],
      "name": "getOwnedNfts",
      "outputs": [
        {
          "internalType": "uint256[]",
          "name": "",
          "type": "uint256[]"
        }
      ],
      "stateMutability": "view",
      "type": "function"
    },
    {
      "inputs": [
        {
          "internalType": "address",
          "name": "owner",
          "type": "address"
        },
        {
          "internalType": "address",
          "name": "operator",
          "type": "address"
        }
      ],
      "name": "isApprovedForAll",
      "outputs": [
        {
          "internalType": "bool",
          "name": "",
          "type": "bool"
        }
      ],
      "stateMutability": "view",
      "type": "function"
    },
    {
      "inputs": [
        {
          "internalType": "uint256",
          "name": "nftId",
          "type": "uint256"
        },
        {
          "internalType": "uint256",
          "name": "price",
          "type": "uint256"
        }
      ],
      "name": "listNft",
      "outputs": [],
      "stateMutability": "nonpayable",
      "type": "function"
    },
    {
      "inputs": [
        {
          "internalType": "string",
          "name": "tokenURI",
          "type": "string"
        }
      ],
      "name": "mint",
      "outputs": [],
      "stateMutability": "nonpayable",
      "type": "function"
    },
    {
      "inputs": [
        {
          "internalType": "uint256",
          "name": "",
          "type": "uint256"
        }
      ],
      "name": "mintedNfts",
      "outputs": [
        {
          "internalType": "uint256",
          "name": "id",
          "type": "uint256"
        },
        {
          "internalType": "address",
          "name": "owner",
          "type": "address"
        },
        {
          "internalType": "string",
          "name": "uri",
          "type": "string"
        },
        {
          "internalType": "bool",
          "name": "isListed",
          "type": "bool"
        },
        {
          "internalType": "uint256",
          "name": "price",
          "type": "uint256"
        }
      ],
      "stateMutability": "view",
      "type": "function"
    },
    {
      "inputs": [],
      "name": "name",
      "outputs": [
        {
          "internalType": "string",
          "name": "",
          "type": "string"
        }
      ],
      "stateMutability": "view",
      "type": "function"
    },
    {
      "inputs": [
        {
          "internalType": "address",
          "name": "",
          "type": "address"
        },
        {
          "internalType": "uint256",
          "name": "",
          "type": "uint256"
        }
      ],
      "name": "ownedNfts",
      "outputs": [
        {
          "internalType": "uint256",
          "name": "",
          "type": "uint256"
        }
      ],
      "stateMutability": "view",
      "type": "function"
    },
    {
      "inputs": [
        {
          "internalType": "uint256",
          "name": "tokenId",
          "type": "uint256"
        }
      ],
      "name": "ownerOf",
      "outputs": [
        {
          "internalType": "address",
          "name": "",
          "type": "address"
        }
      ],
      "stateMutability": "view",
      "type": "function"
    },
    {
      "inputs": [
        {
          "internalType": "address",
          "name": "from",
          "type": "address"
        },
        {
          "internalType": "address",
          "name": "to",
          "type": "address"
        },
        {
          "internalType": "uint256",
          "name": "tokenId",
          "type": "uint256"
        }
      ],
      "name": "safeTransferFrom",
      "outputs": [],
      "stateMutability": "nonpayable",
      "type": "function"
    },
    {
      "inputs": [
        {
          "internalType": "address",
          "name": "from",
          "type": "address"
        },
        {
          "internalType": "address",
          "name": "to",
          "type": "address"
        },
        {
          "internalType": "uint256",
          "name": "tokenId",
          "type": "uint256"
        },
        {
          "internalType": "bytes",
          "name": "data",
          "type": "bytes"
        }
      ],
      "name": "safeTransferFrom",
      "outputs": [],
      "stateMutability": "nonpayable",
      "type": "function"
    },
    {
      "inputs": [
        {
          "internalType": "address",
          "name": "operator",
          "type": "address"
        },
        {
          "internalType": "bool",
          "name": "approved",
          "type": "bool"
        }
      ],
      "name": "setApprovalForAll",
      "outputs": [],
      "stateMutability": "nonpayable",
      "type": "function"
    },
    {
      "inputs": [
        {
          "internalType": "bytes4",
          "name": "interfaceId",
          "type": "bytes4"
        }
      ],
      "name": "supportsInterface",
      "outputs": [
        {
          "internalType": "bool",
          "name": "",
          "type": "bool"
        }
      ],
      "stateMutability": "view",
      "type": "function"
    },
    {
      "inputs": [],
      "name": "symbol",
      "outputs": [
        {
          "internalType": "string",
          "name": "",
          "type": "string"
        }
      ],
      "stateMutability": "view",
      "type": "function"
    },
    {
      "inputs": [
        {
          "internalType": "uint256",
          "name": "tokenId",
          "type": "uint256"
        }
      ],
      "name": "tokenURI",
      "outputs": [
        {
          "internalType": "string",
          "name": "",
          "type": "string"
        }
      ],
      "stateMutability": "view",
      "type": "function"
    },
    {
      "inputs": [
        {
          "internalType": "address",
          "name": "from",
          "type": "address"
        },
        {
          "internalType": "address",
          "name": "to",
          "type": "address"
        },
        {
          "internalType": "uint256",
          "name": "tokenId",
          "type": "uint256"
        }
      ],
      "name": "transferFrom",
      "outputs": [],
      "stateMutability": "nonpayable",
      "type": "function"
    }
  ],
  "transactionHash": "0x96e4676904f381533c3c317b2e9bca7e4d9ebc1bf5429b2e998ee22e65014856",
  "args": [],
  "numDeployments": 1,
  "solcInputHash": "4ebbc5c5456e21b0ab0f995c3b88cba9",
  "bytecode": "0x60806040523480156200001157600080fd5b506040518060400160405280600781526020017f4d79546f6b656e000000000000000000000000000000000000000000000000008152506040518060400160405280600381526020017f4d544b000000000000000000000000000000000000000000000000000000000081525081600090816200008f919062000324565b508060019081620000a1919062000324565b5050506200040b565b600081519050919050565b7f4e487b7100000000000000000000000000000000000000000000000000000000600052604160045260246000fd5b7f4e487b7100000000000000000000000000000000000000000000000000000000600052602260045260246000fd5b600060028204905060018216806200012c57607f821691505b602082108103620001425762000141620000e4565b5b50919050565b60008190508160005260206000209050919050565b60006020601f8301049050919050565b600082821b905092915050565b600060088302620001ac7fffffffffffffffffffffffffffffffffffffffffffffffffffffffffffffffff826200016d565b620001b886836200016d565b95508019841693508086168417925050509392505050565b6000819050919050565b6000819050919050565b600062000205620001ff620001f984620001d0565b620001da565b620001d0565b9050919050565b6000819050919050565b6200022183620001e4565b6200023962000230826200020c565b8484546200017a565b825550505050565b600090565b6200025062000241565b6200025d81848462000216565b505050565b5b8181101562000285576200027960008262000246565b60018101905062000263565b5050565b601f821115620002d4576200029e8162000148565b620002a9846200015d565b81016020851015620002b9578190505b620002d1620002c8856200015d565b83018262000262565b50505b505050565b600082821c905092915050565b6000620002f960001984600802620002d9565b1980831691505092915050565b6000620003148383620002e6565b9150826002028217905092915050565b6200032f82620000aa565b67ffffffffffffffff8111156200034b576200034a620000b5565b5b62000357825462000113565b6200036482828562000289565b600060209050601f8311600181146200039c576000841562000387578287015190505b62000393858262000306565b86555062000403565b601f198416620003ac8662000148565b60005b82811015620003d657848901518255600182019150602085019450602081019050620003af565b86831015620003f65784890151620003f2601f891682620002e6565b8355505b6001600288020188555050505b505050505050565b614a33806200041b6000396000f3fe60806040526004361061014b5760003560e01c80636352211e116100b6578063c7adece01161006f578063c7adece0146104a7578063c87b56dd146104e4578063d85d3d2714610521578063e985e9c51461054a578063f761561314610587578063fe8723e1146105c85761014b565b80636352211e1461038557806370a08231146103c25780638d6cb3fb146103ff57806395d89b411461042a578063a22cb46514610455578063b88d4fde1461047e5761014b565b8063243adbdd11610108578063243adbdd14610272578063305a67a81461028e5780633d9a3479146102b75780633efbf91c146102f457806342842e0e1461031f578063491dc25a146103485761014b565b806301ffc9a71461015057806306fdde031461018d578063081812fc146101b8578063095ea7b3146101f557806313d43fb11461021e57806323b872dd14610249575b600080fd5b34801561015c57600080fd5b50610177600480360381019061017291906130f2565b6105f1565b604051610184919061313a565b60405180910390f35b34801561019957600080fd5b506101a26106d3565b6040516101af91906131e5565b60405180910390f35b3480156101c457600080fd5b506101df60048036038101906101da919061323d565b610765565b6040516101ec91906132ab565b60405180910390f35b34801561020157600080fd5b5061021c600480360381019061021791906132f2565b6107ab565b005b34801561022a57600080fd5b506102336108c2565b6040516102409190613341565b60405180910390f35b34801561025557600080fd5b50610270600480360381019061026b919061335c565b6108ce565b005b61028c6004803603810190610287919061323d565b61092e565b005b34801561029a57600080fd5b506102b560048036038101906102b0919061323d565b611054565b005b3480156102c357600080fd5b506102de60048036038101906102d991906132f2565b61131c565b6040516102eb9190613341565b60405180910390f35b34801561030057600080fd5b5061030961134d565b6040516103169190613341565b60405180910390f35b34801561032b57600080fd5b506103466004803603810190610341919061335c565b611359565b005b34801561035457600080fd5b5061036f600480360381019061036a919061323d565b611379565b60405161037c919061349c565b60405180910390f35b34801561039157600080fd5b506103ac60048036038101906103a7919061323d565b6114bd565b6040516103b991906132ab565b60405180910390f35b3480156103ce57600080fd5b506103e960048036038101906103e491906134be565b611543565b6040516103f69190613341565b60405180910390f35b34801561040b57600080fd5b506104146115fa565b6040516104219190613623565b60405180910390f35b34801561043657600080fd5b5061043f611822565b60405161044c91906131e5565b60405180910390f35b34801561046157600080fd5b5061047c60048036038101906104779190613671565b6118b4565b005b34801561048a57600080fd5b506104a560048036038101906104a091906137e6565b6118ca565b005b3480156104b357600080fd5b506104ce60048036038101906104c991906134be565b61192c565b6040516104db9190613918565b60405180910390f35b3480156104f057600080fd5b5061050b6004803603810190610506919061323d565b6119c3565b60405161051891906131e5565b60405180910390f35b34801561052d57600080fd5b50610548600480360381019061054391906139db565b611ad5565b005b34801561055657600080fd5b50610571600480360381019061056c9190613a24565b611c9d565b60405161057e919061313a565b60405180910390f35b34801561059357600080fd5b506105ae60048036038101906105a9919061323d565b611d31565b6040516105bf959493929190613a64565b60405180910390f35b3480156105d457600080fd5b506105ef60048036038101906105ea9190613abe565b611e1c565b005b60007f80ac58cd000000000000000000000000000000000000000000000000000000007bffffffffffffffffffffffffffffffffffffffffffffffffffffffff1916827bffffffffffffffffffffffffffffffffffffffffffffffffffffffff191614806106bc57507f5b5e139f000000000000000000000000000000000000000000000000000000007bffffffffffffffffffffffffffffffffffffffffffffffffffffffff1916827bffffffffffffffffffffffffffffffffffffffffffffffffffffffff1916145b806106cc57506106cb8261212b565b5b9050919050565b6060600080546106e290613b2d565b80601f016020809104026020016040519081016040528092919081815260200182805461070e90613b2d565b801561075b5780601f106107305761010080835404028352916020019161075b565b820191906000526020600020905b81548152906001019060200180831161073e57829003601f168201915b5050505050905090565b600061077082612195565b6004600083815260200190815260200160002060009054906101000a900473ffffffffffffffffffffffffffffffffffffffff169050919050565b60006107b6826114bd565b90508073ffffffffffffffffffffffffffffffffffffffff168373ffffffffffffffffffffffffffffffffffffffff1603610826576040517f08c379a000000000000000000000000000000000000000000000000000000000815260040161081d90613bd0565b60405180910390fd5b8073ffffffffffffffffffffffffffffffffffffffff166108456121e0565b73ffffffffffffffffffffffffffffffffffffffff16148061087457506108738161086e6121e0565b611c9d565b5b6108b3576040517f08c379a00000000000000000000000000000000000000000000000000000000081526004016108aa90613c62565b60405180910390fd5b6108bd83836121e8565b505050565b60088060000154905081565b6108df6108d96121e0565b826122a1565b61091e576040517f08c379a000000000000000000000000000000000000000000000000000000000815260040161091590613cf4565b60405180910390fd5b610929838383612336565b505050565b6000600960008381526020019081526020016000206040518060a0016040529081600082015481526020016001820160009054906101000a900473ffffffffffffffffffffffffffffffffffffffff1673ffffffffffffffffffffffffffffffffffffffff1673ffffffffffffffffffffffffffffffffffffffff1681526020016002820180546109be90613b2d565b80601f01602080910402602001604051908101604052809291908181526020018280546109ea90613b2d565b8015610a375780601f10610a0c57610100808354040283529160200191610a37565b820191906000526020600020905b815481529060010190602001808311610a1a57829003601f168201915b505050505081526020016003820160009054906101000a900460ff16151515158152602001600482015481525050905060008160200151905060003390503373ffffffffffffffffffffffffffffffffffffffff16836020015173ffffffffffffffffffffffffffffffffffffffff1603610ae7576040517f08c379a0000000000000000000000000000000000000000000000000000000008152600401610ade90613d60565b60405180910390fd5b600115158360600151151514610b32576040517f08c379a0000000000000000000000000000000000000000000000000000000008152600401610b2990613df2565b60405180910390fd5b34836080015114610b78576040517f08c379a0000000000000000000000000000000000000000000000000000000008152600401610b6f90613e84565b60405180910390fd5b600083606001901515908115158152505080836020019073ffffffffffffffffffffffffffffffffffffffff16908173ffffffffffffffffffffffffffffffffffffffff1681525050600083608001818152505082600960008681526020019081526020016000206000820151816000015560208201518160010160006101000a81548173ffffffffffffffffffffffffffffffffffffffff021916908373ffffffffffffffffffffffffffffffffffffffff1602179055506040820151816002019081610c469190614050565b5060608201518160030160006101000a81548160ff021916908315150217905550608082015181600401559050506001600a60008473ffffffffffffffffffffffffffffffffffffffff1673ffffffffffffffffffffffffffffffffffffffff1681526020019081526020016000208054905003610d6057600067ffffffffffffffff811115610cd957610cd86136bb565b5b604051908082528060200260200182016040528015610d075781602001602082028036833780820191505090505b50600a60008473ffffffffffffffffffffffffffffffffffffffff1673ffffffffffffffffffffffffffffffffffffffff1681526020019081526020016000209080519060200190610d5a929190612fd5565b50610f97565b60005b600a60008473ffffffffffffffffffffffffffffffffffffffff1673ffffffffffffffffffffffffffffffffffffffff16815260200190815260200160002080549050811015610f955784600a60008573ffffffffffffffffffffffffffffffffffffffff1673ffffffffffffffffffffffffffffffffffffffff1681526020019081526020016000208281548110610dff57610dfe614122565b5b906000526020600020015403610f8257600a60008473ffffffffffffffffffffffffffffffffffffffff1673ffffffffffffffffffffffffffffffffffffffff1681526020019081526020016000206001600a60008673ffffffffffffffffffffffffffffffffffffffff1673ffffffffffffffffffffffffffffffffffffffff16815260200190815260200160002080549050610e9d9190614180565b81548110610eae57610ead614122565b5b9060005260206000200154600a60008573ffffffffffffffffffffffffffffffffffffffff1673ffffffffffffffffffffffffffffffffffffffff1681526020019081526020016000208281548110610f0a57610f09614122565b5b9060005260206000200181905550600a60008473ffffffffffffffffffffffffffffffffffffffff1673ffffffffffffffffffffffffffffffffffffffff168152602001908152602001600020805480610f6757610f666141b4565b5b60019003818190600052602060002001600090559055610f95565b8080610f8d906141e3565b915050610d63565b505b600a60008273ffffffffffffffffffffffffffffffffffffffff1673ffffffffffffffffffffffffffffffffffffffff1681526020019081526020016000208490806001815401808255809150506001900390600052602060002001600090919091909150558173ffffffffffffffffffffffffffffffffffffffff166108fc349081150290604051600060405180830381858888f19350505050158015611043573d6000803e3d6000fd5b5061104e600861262f565b50505050565b6000600960008381526020019081526020016000206040518060a0016040529081600082015481526020016001820160009054906101000a900473ffffffffffffffffffffffffffffffffffffffff1673ffffffffffffffffffffffffffffffffffffffff1673ffffffffffffffffffffffffffffffffffffffff1681526020016002820180546110e490613b2d565b80601f016020809104026020016040519081016040528092919081815260200182805461111090613b2d565b801561115d5780601f106111325761010080835404028352916020019161115d565b820191906000526020600020905b81548152906001019060200180831161114057829003601f168201915b505050505081526020016003820160009054906101000a900460ff1615151515815260200160048201548152505090503373ffffffffffffffffffffffffffffffffffffffff16816020015173ffffffffffffffffffffffffffffffffffffffff16146111ff576040517f08c379a00000000000000000000000000000000000000000000000000000000081526004016111f69061429d565b60405180910390fd5b60011515816060015115151461124a576040517f08c379a000000000000000000000000000000000000000000000000000000000815260040161124190614309565b60405180910390fd5b6000816060019015159081151581525050600081608001818152505080600960008481526020019081526020016000206000820151816000015560208201518160010160006101000a81548173ffffffffffffffffffffffffffffffffffffffff021916908373ffffffffffffffffffffffffffffffffffffffff16021790555060408201518160020190816112e09190614050565b5060608201518160030160006101000a81548160ff02191690831515021790555060808201518160040155905050611318600861262f565b5050565b600a602052816000526040600020818154811061133857600080fd5b90600052602060002001600091509150505481565b60078060000154905081565b611374838383604051806020016040528060008152506118ca565b505050565b611381613022565b600960008381526020019081526020016000206040518060a0016040529081600082015481526020016001820160009054906101000a900473ffffffffffffffffffffffffffffffffffffffff1673ffffffffffffffffffffffffffffffffffffffff1673ffffffffffffffffffffffffffffffffffffffff16815260200160028201805461140f90613b2d565b80601f016020809104026020016040519081016040528092919081815260200182805461143b90613b2d565b80156114885780601f1061145d57610100808354040283529160200191611488565b820191906000526020600020905b81548152906001019060200180831161146b57829003601f168201915b505050505081526020016003820160009054906101000a900460ff161515151581526020016004820154815250509050919050565b6000806114c98361268b565b9050600073ffffffffffffffffffffffffffffffffffffffff168173ffffffffffffffffffffffffffffffffffffffff160361153a576040517f08c379a000000000000000000000000000000000000000000000000000000000815260040161153190614375565b60405180910390fd5b80915050919050565b60008073ffffffffffffffffffffffffffffffffffffffff168273ffffffffffffffffffffffffffffffffffffffff16036115b3576040517f08c379a00000000000000000000000000000000000000000000000000000000081526004016115aa90614407565b60405180910390fd5b600360008373ffffffffffffffffffffffffffffffffffffffff1673ffffffffffffffffffffffffffffffffffffffff168152602001908152602001600020549050919050565b6060600061160860086126c8565b67ffffffffffffffff811115611621576116206136bb565b5b60405190808252806020026020018201604052801561165a57816020015b611647613022565b81526020019060019003908161163f5790505b509050600080600190505b61166f60076126c8565b811161181957600115156009600083815260200190815260200160002060030160009054906101000a900460ff1615150361180657600960008281526020019081526020016000206040518060a0016040529081600082015481526020016001820160009054906101000a900473ffffffffffffffffffffffffffffffffffffffff1673ffffffffffffffffffffffffffffffffffffffff1673ffffffffffffffffffffffffffffffffffffffff16815260200160028201805461173290613b2d565b80601f016020809104026020016040519081016040528092919081815260200182805461175e90613b2d565b80156117ab5780601f10611780576101008083540402835291602001916117ab565b820191906000526020600020905b81548152906001019060200180831161178e57829003601f168201915b505050505081526020016003820160009054906101000a900460ff161515151581526020016004820154815250508383815181106117ec576117eb614122565b5b60200260200101819052508180611802906141e3565b9250505b8080611811906141e3565b915050611665565b50819250505090565b60606001805461183190613b2d565b80601f016020809104026020016040519081016040528092919081815260200182805461185d90613b2d565b80156118aa5780601f1061187f576101008083540402835291602001916118aa565b820191906000526020600020905b81548152906001019060200180831161188d57829003601f168201915b5050505050905090565b6118c66118bf6121e0565b83836126d6565b5050565b6118db6118d56121e0565b836122a1565b61191a576040517f08c379a000000000000000000000000000000000000000000000000000000000815260040161191190613cf4565b60405180910390fd5b61192684848484612842565b50505050565b6060600a60008373ffffffffffffffffffffffffffffffffffffffff1673ffffffffffffffffffffffffffffffffffffffff1681526020019081526020016000208054806020026020016040519081016040528092919081815260200182805480156119b757602002820191906000526020600020905b8154815260200190600101908083116119a3575b50505050509050919050565b60606119ce82612195565b60006006600084815260200190815260200160002080546119ee90613b2d565b80601f0160208091040260200160405190810160405280929190818152602001828054611a1a90613b2d565b8015611a675780601f10611a3c57610100808354040283529160200191611a67565b820191906000526020600020905b815481529060010190602001808311611a4a57829003601f168201915b505050505090506000611a7861289e565b90506000815103611a8d578192505050611ad0565b600082511115611ac2578082604051602001611aaa929190614463565b60405160208183030381529060405292505050611ad0565b611acb846128b5565b925050505b919050565b611adf600761291d565b6000611aeb60076126c8565b9050611af73382612933565b611b018183612b50565b60006040518060a001604052808381526020013373ffffffffffffffffffffffffffffffffffffffff1681526020018481526020016000151581526020016000815250905080600960008481526020019081526020016000206000820151816000015560208201518160010160006101000a81548173ffffffffffffffffffffffffffffffffffffffff021916908373ffffffffffffffffffffffffffffffffffffffff1602179055506040820151816002019081611bc09190614050565b5060608201518160030160006101000a81548160ff02191690831515021790555060808201518160040155905050600a60003373ffffffffffffffffffffffffffffffffffffffff1673ffffffffffffffffffffffffffffffffffffffff168152602001908152602001600020829080600181540180825580915050600190039060005260206000200160009091909190915055813373ffffffffffffffffffffffffffffffffffffffff167ff2b290a76feb54be358b555507421d765609171aefa0646f109a653228ff81b860405160405180910390a3505050565b6000600560008473ffffffffffffffffffffffffffffffffffffffff1673ffffffffffffffffffffffffffffffffffffffff16815260200190815260200160002060008373ffffffffffffffffffffffffffffffffffffffff1673ffffffffffffffffffffffffffffffffffffffff16815260200190815260200160002060009054906101000a900460ff16905092915050565b60096020528060005260406000206000915090508060000154908060010160009054906101000a900473ffffffffffffffffffffffffffffffffffffffff1690806002018054611d8090613b2d565b80601f0160208091040260200160405190810160405280929190818152602001828054611dac90613b2d565b8015611df95780601f10611dce57610100808354040283529160200191611df9565b820191906000526020600020905b815481529060010190602001808311611ddc57829003601f168201915b5050505050908060030160009054906101000a900460ff16908060040154905085565b6000600960008481526020019081526020016000206040518060a0016040529081600082015481526020016001820160009054906101000a900473ffffffffffffffffffffffffffffffffffffffff1673ffffffffffffffffffffffffffffffffffffffff1673ffffffffffffffffffffffffffffffffffffffff168152602001600282018054611eac90613b2d565b80601f0160208091040260200160405190810160405280929190818152602001828054611ed890613b2d565b8015611f255780601f10611efa57610100808354040283529160200191611f25565b820191906000526020600020905b815481529060010190602001808311611f0857829003601f168201915b505050505081526020016003820160009054906101000a900460ff1615151515815260200160048201548152505090503373ffffffffffffffffffffffffffffffffffffffff16816020015173ffffffffffffffffffffffffffffffffffffffff1614611fc7576040517f08c379a0000000000000000000000000000000000000000000000000000000008152600401611fbe9061429d565b60405180910390fd5b6000821161200a576040517f08c379a0000000000000000000000000000000000000000000000000000000008152600401612001906144d3565b60405180910390fd5b60018160600190151590811515815250508181608001818152505080600960008581526020019081526020016000206000820151816000015560208201518160010160006101000a81548173ffffffffffffffffffffffffffffffffffffffff021916908373ffffffffffffffffffffffffffffffffffffffff160217905550604082015181600201908161209f9190614050565b5060608201518160030160006101000a81548160ff021916908315150217905550608082015181600401559050506120d7600861291d565b823373ffffffffffffffffffffffffffffffffffffffff167f8cb0963b04034c4c13b179fd8bc2a3e07a88cd6b5dd0f6bee0db0bfa04d414418460405161211e9190613341565b60405180910390a3505050565b60007f01ffc9a7000000000000000000000000000000000000000000000000000000007bffffffffffffffffffffffffffffffffffffffffffffffffffffffff1916827bffffffffffffffffffffffffffffffffffffffffffffffffffffffff1916149050919050565b61219e81612bbd565b6121dd576040517f08c379a00000000000000000000000000000000000000000000000000000000081526004016121d490614375565b60405180910390fd5b50565b600033905090565b816004600083815260200190815260200160002060006101000a81548173ffffffffffffffffffffffffffffffffffffffff021916908373ffffffffffffffffffffffffffffffffffffffff160217905550808273ffffffffffffffffffffffffffffffffffffffff1661225b836114bd565b73ffffffffffffffffffffffffffffffffffffffff167f8c5be1e5ebec7d5bd14f71427d1e84f3dd0314c0f7b2291e5b200ac8c7c3b92560405160405180910390a45050565b6000806122ad836114bd565b90508073ffffffffffffffffffffffffffffffffffffffff168473ffffffffffffffffffffffffffffffffffffffff1614806122ef57506122ee8185611c9d565b5b8061232d57508373ffffffffffffffffffffffffffffffffffffffff1661231584610765565b73ffffffffffffffffffffffffffffffffffffffff16145b91505092915050565b8273ffffffffffffffffffffffffffffffffffffffff16612356826114bd565b73ffffffffffffffffffffffffffffffffffffffff16146123ac576040517f08c379a00000000000000000000000000000000000000000000000000000000081526004016123a390614565565b60405180910390fd5b600073ffffffffffffffffffffffffffffffffffffffff168273ffffffffffffffffffffffffffffffffffffffff160361241b576040517f08c379a0000000000000000000000000000000000000000000000000000000008152600401612412906145f7565b60405180910390fd5b6124288383836001612bfe565b8273ffffffffffffffffffffffffffffffffffffffff16612448826114bd565b73ffffffffffffffffffffffffffffffffffffffff161461249e576040517f08c379a000000000000000000000000000000000000000000000000000000000815260040161249590614565565b60405180910390fd5b6004600082815260200190815260200160002060006101000a81549073ffffffffffffffffffffffffffffffffffffffff02191690556001600360008573ffffffffffffffffffffffffffffffffffffffff1673ffffffffffffffffffffffffffffffffffffffff168152602001908152602001600020600082825403925050819055506001600360008473ffffffffffffffffffffffffffffffffffffffff1673ffffffffffffffffffffffffffffffffffffffff16815260200190815260200160002060008282540192505081905550816002600083815260200190815260200160002060006101000a81548173ffffffffffffffffffffffffffffffffffffffff021916908373ffffffffffffffffffffffffffffffffffffffff160217905550808273ffffffffffffffffffffffffffffffffffffffff168473ffffffffffffffffffffffffffffffffffffffff167fddf252ad1be2c89b69c2b068fc378daa952ba7f163c4a11628f55a4df523b3ef60405160405180910390a461262a8383836001612c04565b505050565b6000816000015490506000811161267b576040517f08c379a000000000000000000000000000000000000000000000000000000000815260040161267290614663565b60405180910390fd5b6001810382600001819055505050565b60006002600083815260200190815260200160002060009054906101000a900473ffffffffffffffffffffffffffffffffffffffff169050919050565b600081600001549050919050565b8173ffffffffffffffffffffffffffffffffffffffff168373ffffffffffffffffffffffffffffffffffffffff1603612744576040517f08c379a000000000000000000000000000000000000000000000000000000000815260040161273b906146cf565b60405180910390fd5b80600560008573ffffffffffffffffffffffffffffffffffffffff1673ffffffffffffffffffffffffffffffffffffffff16815260200190815260200160002060008473ffffffffffffffffffffffffffffffffffffffff1673ffffffffffffffffffffffffffffffffffffffff16815260200190815260200160002060006101000a81548160ff0219169083151502179055508173ffffffffffffffffffffffffffffffffffffffff168373ffffffffffffffffffffffffffffffffffffffff167f17307eab39ab6107e8899845ad3d59bd9653f200f220920489ca2b5937696c3183604051612835919061313a565b60405180910390a3505050565b61284d848484612336565b61285984848484612c0a565b612898576040517f08c379a000000000000000000000000000000000000000000000000000000000815260040161288f90614761565b60405180910390fd5b50505050565b606060405180602001604052806000815250905090565b60606128c082612195565b60006128ca61289e565b905060008151116128ea5760405180602001604052806000815250612915565b806128f484612d91565b604051602001612905929190614463565b6040516020818303038152906040525b915050919050565b6001816000016000828254019250508190555050565b600073ffffffffffffffffffffffffffffffffffffffff168273ffffffffffffffffffffffffffffffffffffffff16036129a2576040517f08c379a0000000000000000000000000000000000000000000000000000000008152600401612999906147cd565b60405180910390fd5b6129ab81612bbd565b156129eb576040517f08c379a00000000000000000000000000000000000000000000000000000000081526004016129e290614839565b60405180910390fd5b6129f9600083836001612bfe565b612a0281612bbd565b15612a42576040517f08c379a0000000000000000000000000000000000000000000000000000000008152600401612a3990614839565b60405180910390fd5b6001600360008473ffffffffffffffffffffffffffffffffffffffff1673ffffffffffffffffffffffffffffffffffffffff16815260200190815260200160002060008282540192505081905550816002600083815260200190815260200160002060006101000a81548173ffffffffffffffffffffffffffffffffffffffff021916908373ffffffffffffffffffffffffffffffffffffffff160217905550808273ffffffffffffffffffffffffffffffffffffffff16600073ffffffffffffffffffffffffffffffffffffffff167fddf252ad1be2c89b69c2b068fc378daa952ba7f163c4a11628f55a4df523b3ef60405160405180910390a4612b4c600083836001612c04565b5050565b612b5982612bbd565b612b98576040517f08c379a0000000000000000000000000000000000000000000000000000000008152600401612b8f906148cb565b60405180910390fd5b80600660008481526020019081526020016000209081612bb89190614050565b505050565b60008073ffffffffffffffffffffffffffffffffffffffff16612bdf8361268b565b73ffffffffffffffffffffffffffffffffffffffff1614159050919050565b50505050565b50505050565b6000612c2b8473ffffffffffffffffffffffffffffffffffffffff16612e5f565b15612d84578373ffffffffffffffffffffffffffffffffffffffff1663150b7a02612c546121e0565b8786866040518563ffffffff1660e01b8152600401612c769493929190614940565b6020604051808303816000875af1925050508015612cb257506040513d601f19601f82011682018060405250810190612caf91906149a1565b60015b612d34573d8060008114612ce2576040519150601f19603f3d011682016040523d82523d6000602084013e612ce7565b606091505b506000815103612d2c576040517f08c379a0000000000000000000000000000000000000000000000000000000008152600401612d2390614761565b60405180910390fd5b805181602001fd5b63150b7a0260e01b7bffffffffffffffffffffffffffffffffffffffffffffffffffffffff1916817bffffffffffffffffffffffffffffffffffffffffffffffffffffffff191614915050612d89565b600190505b949350505050565b606060006001612da084612e82565b01905060008167ffffffffffffffff811115612dbf57612dbe6136bb565b5b6040519080825280601f01601f191660200182016040528015612df15781602001600182028036833780820191505090505b509050600082602001820190505b600115612e54578080600190039150507f3031323334353637383961626364656600000000000000000000000000000000600a86061a8153600a8581612e4857612e476149ce565b5b04945060008503612dff575b819350505050919050565b6000808273ffffffffffffffffffffffffffffffffffffffff163b119050919050565b600080600090507a184f03e93ff9f4daa797ed6e38ed64bf6a1f0100000000000000008310612ee0577a184f03e93ff9f4daa797ed6e38ed64bf6a1f0100000000000000008381612ed657612ed56149ce565b5b0492506040810190505b6d04ee2d6d415b85acef81000000008310612f1d576d04ee2d6d415b85acef81000000008381612f1357612f126149ce565b5b0492506020810190505b662386f26fc100008310612f4c57662386f26fc100008381612f4257612f416149ce565b5b0492506010810190505b6305f5e1008310612f75576305f5e1008381612f6b57612f6a6149ce565b5b0492506008810190505b6127108310612f9a576127108381612f9057612f8f6149ce565b5b0492506004810190505b60648310612fbd5760648381612fb357612fb26149ce565b5b0492506002810190505b600a8310612fcc576001810190505b80915050919050565b828054828255906000526020600020908101928215613011579160200282015b82811115613010578251825591602001919060010190612ff5565b5b50905061301e9190613069565b5090565b6040518060a0016040528060008152602001600073ffffffffffffffffffffffffffffffffffffffff16815260200160608152602001600015158152602001600081525090565b5b8082111561308257600081600090555060010161306a565b5090565b6000604051905090565b600080fd5b600080fd5b60007fffffffff0000000000000000000000000000000000000000000000000000000082169050919050565b6130cf8161309a565b81146130da57600080fd5b50565b6000813590506130ec816130c6565b92915050565b60006020828403121561310857613107613090565b5b6000613116848285016130dd565b91505092915050565b60008115159050919050565b6131348161311f565b82525050565b600060208201905061314f600083018461312b565b92915050565b600081519050919050565b600082825260208201905092915050565b60005b8381101561318f578082015181840152602081019050613174565b60008484015250505050565b6000601f19601f8301169050919050565b60006131b782613155565b6131c18185613160565b93506131d1818560208601613171565b6131da8161319b565b840191505092915050565b600060208201905081810360008301526131ff81846131ac565b905092915050565b6000819050919050565b61321a81613207565b811461322557600080fd5b50565b60008135905061323781613211565b92915050565b60006020828403121561325357613252613090565b5b600061326184828501613228565b91505092915050565b600073ffffffffffffffffffffffffffffffffffffffff82169050919050565b60006132958261326a565b9050919050565b6132a58161328a565b82525050565b60006020820190506132c0600083018461329c565b92915050565b6132cf8161328a565b81146132da57600080fd5b50565b6000813590506132ec816132c6565b92915050565b6000806040838503121561330957613308613090565b5b6000613317858286016132dd565b925050602061332885828601613228565b9150509250929050565b61333b81613207565b82525050565b60006020820190506133566000830184613332565b92915050565b60008060006060848603121561337557613374613090565b5b6000613383868287016132dd565b9350506020613394868287016132dd565b92505060406133a586828701613228565b9150509250925092565b6133b881613207565b82525050565b6133c78161328a565b82525050565b600082825260208201905092915050565b60006133e982613155565b6133f381856133cd565b9350613403818560208601613171565b61340c8161319b565b840191505092915050565b6134208161311f565b82525050565b600060a08301600083015161343e60008601826133af565b50602083015161345160208601826133be565b506040830151848203604086015261346982826133de565b915050606083015161347e6060860182613417565b50608083015161349160808601826133af565b508091505092915050565b600060208201905081810360008301526134b68184613426565b905092915050565b6000602082840312156134d4576134d3613090565b5b60006134e2848285016132dd565b91505092915050565b600081519050919050565b600082825260208201905092915050565b6000819050602082019050919050565b600060a08301600083015161352f60008601826133af565b50602083015161354260208601826133be565b506040830151848203604086015261355a82826133de565b915050606083015161356f6060860182613417565b50608083015161358260808601826133af565b508091505092915050565b60006135998383613517565b905092915050565b6000602082019050919050565b60006135b9826134eb565b6135c381856134f6565b9350836020820285016135d585613507565b8060005b8581101561361157848403895281516135f2858261358d565b94506135fd836135a1565b925060208a019950506001810190506135d9565b50829750879550505050505092915050565b6000602082019050818103600083015261363d81846135ae565b905092915050565b61364e8161311f565b811461365957600080fd5b50565b60008135905061366b81613645565b92915050565b6000806040838503121561368857613687613090565b5b6000613696858286016132dd565b92505060206136a78582860161365c565b9150509250929050565b600080fd5b600080fd5b7f4e487b7100000000000000000000000000000000000000000000000000000000600052604160045260246000fd5b6136f38261319b565b810181811067ffffffffffffffff82111715613712576137116136bb565b5b80604052505050565b6000613725613086565b905061373182826136ea565b919050565b600067ffffffffffffffff821115613751576137506136bb565b5b61375a8261319b565b9050602081019050919050565b82818337600083830152505050565b600061378961378484613736565b61371b565b9050828152602081018484840111156137a5576137a46136b6565b5b6137b0848285613767565b509392505050565b600082601f8301126137cd576137cc6136b1565b5b81356137dd848260208601613776565b91505092915050565b60008060008060808587031215613800576137ff613090565b5b600061380e878288016132dd565b945050602061381f878288016132dd565b935050604061383087828801613228565b925050606085013567ffffffffffffffff81111561385157613850613095565b5b61385d878288016137b8565b91505092959194509250565b600081519050919050565b600082825260208201905092915050565b6000819050602082019050919050565b60006138a183836133af565b60208301905092915050565b6000602082019050919050565b60006138c582613869565b6138cf8185613874565b93506138da83613885565b8060005b8381101561390b5781516138f28882613895565b97506138fd836138ad565b9250506001810190506138de565b5085935050505092915050565b6000602082019050818103600083015261393281846138ba565b905092915050565b600067ffffffffffffffff821115613955576139546136bb565b5b61395e8261319b565b9050602081019050919050565b600061397e6139798461393a565b61371b565b90508281526020810184848401111561399a576139996136b6565b5b6139a5848285613767565b509392505050565b600082601f8301126139c2576139c16136b1565b5b81356139d284826020860161396b565b91505092915050565b6000602082840312156139f1576139f0613090565b5b600082013567ffffffffffffffff811115613a0f57613a0e613095565b5b613a1b848285016139ad565b91505092915050565b60008060408385031215613a3b57613a3a613090565b5b6000613a49858286016132dd565b9250506020613a5a858286016132dd565b9150509250929050565b600060a082019050613a796000830188613332565b613a86602083018761329c565b8181036040830152613a9881866131ac565b9050613aa7606083018561312b565b613ab46080830184613332565b9695505050505050565b60008060408385031215613ad557613ad4613090565b5b6000613ae385828601613228565b9250506020613af485828601613228565b9150509250929050565b7f4e487b7100000000000000000000000000000000000000000000000000000000600052602260045260246000fd5b60006002820490506001821680613b4557607f821691505b602082108103613b5857613b57613afe565b5b50919050565b7f4552433732313a20617070726f76616c20746f2063757272656e74206f776e6560008201527f7200000000000000000000000000000000000000000000000000000000000000602082015250565b6000613bba602183613160565b9150613bc582613b5e565b604082019050919050565b60006020820190508181036000830152613be981613bad565b9050919050565b7f4552433732313a20617070726f76652063616c6c6572206973206e6f7420746f60008201527f6b656e206f776e6572206f7220617070726f76656420666f7220616c6c000000602082015250565b6000613c4c603d83613160565b9150613c5782613bf0565b604082019050919050565b60006020820190508181036000830152613c7b81613c3f565b9050919050565b7f4552433732313a2063616c6c6572206973206e6f7420746f6b656e206f776e6560008201527f72206f7220617070726f76656400000000000000000000000000000000000000602082015250565b6000613cde602d83613160565b9150613ce982613c82565b604082019050919050565b60006020820190508181036000830152613d0d81613cd1565b9050919050565b7f596f752063616e742062757920796f7572206f776e204e465400000000000000600082015250565b6000613d4a601983613160565b9150613d5582613d14565b602082019050919050565b60006020820190508181036000830152613d7981613d3d565b9050919050565b7f4e4654207468617420796f752061726520747279696e6720746f20627579206960008201527f73206e6f74206c697374656420666f722073616c650000000000000000000000602082015250565b6000613ddc603583613160565b9150613de782613d80565b604082019050919050565b60006020820190508181036000830152613e0b81613dcf565b9050919050565b7f596f752068617665206e6f742070617965642074686520636f7272656374207060008201527f7269636500000000000000000000000000000000000000000000000000000000602082015250565b6000613e6e602483613160565b9150613e7982613e12565b604082019050919050565b60006020820190508181036000830152613e9d81613e61565b9050919050565b60008190508160005260206000209050919050565b60006020601f8301049050919050565b600082821b905092915050565b600060088302613f067fffffffffffffffffffffffffffffffffffffffffffffffffffffffffffffffff82613ec9565b613f108683613ec9565b95508019841693508086168417925050509392505050565b6000819050919050565b6000613f4d613f48613f4384613207565b613f28565b613207565b9050919050565b6000819050919050565b613f6783613f32565b613f7b613f7382613f54565b848454613ed6565b825550505050565b600090565b613f90613f83565b613f9b818484613f5e565b505050565b5b81811015613fbf57613fb4600082613f88565b600181019050613fa1565b5050565b601f82111561400457613fd581613ea4565b613fde84613eb9565b81016020851015613fed578190505b614001613ff985613eb9565b830182613fa0565b50505b505050565b600082821c905092915050565b600061402760001984600802614009565b1980831691505092915050565b60006140408383614016565b9150826002028217905092915050565b61405982613155565b67ffffffffffffffff811115614072576140716136bb565b5b61407c8254613b2d565b614087828285613fc3565b600060209050601f8311600181146140ba57600084156140a8578287015190505b6140b28582614034565b86555061411a565b601f1984166140c886613ea4565b60005b828110156140f0578489015182556001820191506020850194506020810190506140cb565b8683101561410d5784890151614109601f891682614016565b8355505b6001600288020188555050505b505050505050565b7f4e487b7100000000000000000000000000000000000000000000000000000000600052603260045260246000fd5b7f4e487b7100000000000000000000000000000000000000000000000000000000600052601160045260246000fd5b600061418b82613207565b915061419683613207565b92508282039050818111156141ae576141ad614151565b5b92915050565b7f4e487b7100000000000000000000000000000000000000000000000000000000600052603160045260246000fd5b60006141ee82613207565b91507fffffffffffffffffffffffffffffffffffffffffffffffffffffffffffffffff82036142205761421f614151565b5b600182019050919050565b7f596f7520617265206e6f7420746865206f776e6572206f662074686973204e4660008201527f5400000000000000000000000000000000000000000000000000000000000000602082015250565b6000614287602183613160565b91506142928261422b565b604082019050919050565b600060208201905081810360008301526142b68161427a565b9050919050565b7f4e6674206973206e6f74206c6973746564000000000000000000000000000000600082015250565b60006142f3601183613160565b91506142fe826142bd565b602082019050919050565b60006020820190508181036000830152614322816142e6565b9050919050565b7f4552433732313a20696e76616c696420746f6b656e2049440000000000000000600082015250565b600061435f601883613160565b915061436a82614329565b602082019050919050565b6000602082019050818103600083015261438e81614352565b9050919050565b7f4552433732313a2061646472657373207a65726f206973206e6f74206120766160008201527f6c6964206f776e65720000000000000000000000000000000000000000000000602082015250565b60006143f1602983613160565b91506143fc82614395565b604082019050919050565b60006020820190508181036000830152614420816143e4565b9050919050565b600081905092915050565b600061443d82613155565b6144478185614427565b9350614457818560208601613171565b80840191505092915050565b600061446f8285614432565b915061447b8284614432565b91508190509392505050565b7f5072696365206d7573742062652067726561746572207468616e203000000000600082015250565b60006144bd601c83613160565b91506144c882614487565b602082019050919050565b600060208201905081810360008301526144ec816144b0565b9050919050565b7f4552433732313a207472616e736665722066726f6d20696e636f72726563742060008201527f6f776e6572000000000000000000000000000000000000000000000000000000602082015250565b600061454f602583613160565b915061455a826144f3565b604082019050919050565b6000602082019050818103600083015261457e81614542565b9050919050565b7f4552433732313a207472616e7366657220746f20746865207a65726f2061646460008201527f7265737300000000000000000000000000000000000000000000000000000000602082015250565b60006145e1602483613160565b91506145ec82614585565b604082019050919050565b60006020820190508181036000830152614610816145d4565b9050919050565b7f436f756e7465723a2064656372656d656e74206f766572666c6f770000000000600082015250565b600061464d601b83613160565b915061465882614617565b602082019050919050565b6000602082019050818103600083015261467c81614640565b9050919050565b7f4552433732313a20617070726f766520746f2063616c6c657200000000000000600082015250565b60006146b9601983613160565b91506146c482614683565b602082019050919050565b600060208201905081810360008301526146e8816146ac565b9050919050565b7f4552433732313a207472616e7366657220746f206e6f6e20455243373231526560008201527f63656976657220696d706c656d656e7465720000000000000000000000000000602082015250565b600061474b603283613160565b9150614756826146ef565b604082019050919050565b6000602082019050818103600083015261477a8161473e565b9050919050565b7f4552433732313a206d696e7420746f20746865207a65726f2061646472657373600082015250565b60006147b7602083613160565b91506147c282614781565b602082019050919050565b600060208201905081810360008301526147e6816147aa565b9050919050565b7f4552433732313a20746f6b656e20616c7265616479206d696e74656400000000600082015250565b6000614823601c83613160565b915061482e826147ed565b602082019050919050565b6000602082019050818103600083015261485281614816565b9050919050565b7f45524337323155524953746f726167653a2055524920736574206f66206e6f6e60008201527f6578697374656e7420746f6b656e000000000000000000000000000000000000602082015250565b60006148b5602e83613160565b91506148c082614859565b604082019050919050565b600060208201905081810360008301526148e4816148a8565b9050919050565b600081519050919050565b600082825260208201905092915050565b6000614912826148eb565b61491c81856148f6565b935061492c818560208601613171565b6149358161319b565b840191505092915050565b6000608082019050614955600083018761329c565b614962602083018661329c565b61496f6040830185613332565b81810360608301526149818184614907565b905095945050505050565b60008151905061499b816130c6565b92915050565b6000602082840312156149b7576149b6613090565b5b60006149c58482850161498c565b91505092915050565b7f4e487b7100000000000000000000000000000000000000000000000000000000600052601260045260246000fdfea264697066735822122081b78aca3ac5cb4aff1b7ae64f296a7f0fc2b15ea6e38e95bcb1dbd5439836f564736f6c63430008120033",
  "devdoc": {
    "events": {
      "Approval(address,address,uint256)": {
        "details": "Emitted when `owner` enables `approved` to manage the `tokenId` token."
      },
      "ApprovalForAll(address,address,bool)": {
        "details": "Emitted when `owner` enables or disables (`approved`) `operator` to manage all of its assets."
      },
      "Transfer(address,address,uint256)": {
        "details": "Emitted when `tokenId` token is transferred from `from` to `to`."
      }
    },
    "kind": "dev",
    "methods": {
      "approve(address,uint256)": {
        "details": "See {IERC721-approve}."
      },
      "balanceOf(address)": {
        "details": "See {IERC721-balanceOf}."
      },
      "getApproved(uint256)": {
        "details": "See {IERC721-getApproved}."
      },
      "isApprovedForAll(address,address)": {
        "details": "See {IERC721-isApprovedForAll}."
      },
      "name()": {
        "details": "See {IERC721Metadata-name}."
      },
      "ownerOf(uint256)": {
        "details": "See {IERC721-ownerOf}."
      },
      "safeTransferFrom(address,address,uint256)": {
        "details": "See {IERC721-safeTransferFrom}."
      },
      "safeTransferFrom(address,address,uint256,bytes)": {
        "details": "See {IERC721-safeTransferFrom}."
      },
      "setApprovalForAll(address,bool)": {
        "details": "See {IERC721-setApprovalForAll}."
      },
      "supportsInterface(bytes4)": {
        "details": "See {IERC165-supportsInterface}."
      },
      "symbol()": {
        "details": "See {IERC721Metadata-symbol}."
      },
      "tokenURI(uint256)": {
        "details": "See {IERC721Metadata-tokenURI}."
      },
      "transferFrom(address,address,uint256)": {
        "details": "See {IERC721-transferFrom}."
      }
    },
    "version": 1
  },
  "userdoc": {
    "kind": "user",
    "methods": {},
    "version": 1
  },
  "storageLayout": {
    "storage": [
      {
        "astId": 25,
        "contract": "contracts/NftMarketplace.sol:NftMarketplace",
        "label": "_name",
        "offset": 0,
        "slot": "0",
        "type": "t_string_storage"
      },
      {
        "astId": 27,
        "contract": "contracts/NftMarketplace.sol:NftMarketplace",
        "label": "_symbol",
        "offset": 0,
        "slot": "1",
        "type": "t_string_storage"
      },
      {
        "astId": 31,
        "contract": "contracts/NftMarketplace.sol:NftMarketplace",
        "label": "_owners",
        "offset": 0,
        "slot": "2",
        "type": "t_mapping(t_uint256,t_address)"
      },
      {
        "astId": 35,
        "contract": "contracts/NftMarketplace.sol:NftMarketplace",
        "label": "_balances",
        "offset": 0,
        "slot": "3",
        "type": "t_mapping(t_address,t_uint256)"
      },
      {
        "astId": 39,
        "contract": "contracts/NftMarketplace.sol:NftMarketplace",
        "label": "_tokenApprovals",
        "offset": 0,
        "slot": "4",
        "type": "t_mapping(t_uint256,t_address)"
      },
      {
        "astId": 45,
        "contract": "contracts/NftMarketplace.sol:NftMarketplace",
        "label": "_operatorApprovals",
        "offset": 0,
        "slot": "5",
        "type": "t_mapping(t_address,t_mapping(t_address,t_bool))"
      },
      {
        "astId": 1073,
        "contract": "contracts/NftMarketplace.sol:NftMarketplace",
        "label": "_tokenURIs",
        "offset": 0,
        "slot": "6",
        "type": "t_mapping(t_uint256,t_string_storage)"
      },
      {
        "astId": 2728,
        "contract": "contracts/NftMarketplace.sol:NftMarketplace",
        "label": "_nftId",
        "offset": 0,
        "slot": "7",
        "type": "t_struct(Counter)1570_storage"
      },
      {
        "astId": 2731,
        "contract": "contracts/NftMarketplace.sol:NftMarketplace",
        "label": "_listedNfts",
        "offset": 0,
        "slot": "8",
        "type": "t_struct(Counter)1570_storage"
      },
      {
        "astId": 2747,
        "contract": "contracts/NftMarketplace.sol:NftMarketplace",
        "label": "mintedNfts",
        "offset": 0,
        "slot": "9",
        "type": "t_mapping(t_uint256,t_struct(Nft)2742_storage)"
      },
      {
        "astId": 2752,
        "contract": "contracts/NftMarketplace.sol:NftMarketplace",
        "label": "ownedNfts",
        "offset": 0,
        "slot": "10",
        "type": "t_mapping(t_address,t_array(t_uint256)dyn_storage)"
      }
    ],
    "types": {
      "t_address": {
        "encoding": "inplace",
        "label": "address",
        "numberOfBytes": "20"
      },
      "t_array(t_uint256)dyn_storage": {
        "base": "t_uint256",
        "encoding": "dynamic_array",
        "label": "uint256[]",
        "numberOfBytes": "32"
      },
      "t_bool": {
        "encoding": "inplace",
        "label": "bool",
        "numberOfBytes": "1"
      },
      "t_mapping(t_address,t_array(t_uint256)dyn_storage)": {
        "encoding": "mapping",
        "key": "t_address",
        "label": "mapping(address => uint256[])",
        "numberOfBytes": "32",
        "value": "t_array(t_uint256)dyn_storage"
      },
      "t_mapping(t_address,t_bool)": {
        "encoding": "mapping",
        "key": "t_address",
        "label": "mapping(address => bool)",
        "numberOfBytes": "32",
        "value": "t_bool"
      },
      "t_mapping(t_address,t_mapping(t_address,t_bool))": {
        "encoding": "mapping",
        "key": "t_address",
        "label": "mapping(address => mapping(address => bool))",
        "numberOfBytes": "32",
        "value": "t_mapping(t_address,t_bool)"
      },
      "t_mapping(t_address,t_uint256)": {
        "encoding": "mapping",
        "key": "t_address",
        "label": "mapping(address => uint256)",
        "numberOfBytes": "32",
        "value": "t_uint256"
      },
      "t_mapping(t_uint256,t_address)": {
        "encoding": "mapping",
        "key": "t_uint256",
        "label": "mapping(uint256 => address)",
        "numberOfBytes": "32",
        "value": "t_address"
      },
      "t_mapping(t_uint256,t_string_storage)": {
        "encoding": "mapping",
        "key": "t_uint256",
        "label": "mapping(uint256 => string)",
        "numberOfBytes": "32",
        "value": "t_string_storage"
      },
      "t_mapping(t_uint256,t_struct(Nft)2742_storage)": {
        "encoding": "mapping",
        "key": "t_uint256",
        "label": "mapping(uint256 => struct NftMarketplace.Nft)",
        "numberOfBytes": "32",
        "value": "t_struct(Nft)2742_storage"
      },
      "t_string_storage": {
        "encoding": "bytes",
        "label": "string",
        "numberOfBytes": "32"
      },
      "t_struct(Counter)1570_storage": {
        "encoding": "inplace",
        "label": "struct Counters.Counter",
        "members": [
          {
            "astId": 1569,
            "contract": "contracts/NftMarketplace.sol:NftMarketplace",
            "label": "_value",
            "offset": 0,
            "slot": "0",
            "type": "t_uint256"
          }
        ],
        "numberOfBytes": "32"
      },
      "t_struct(Nft)2742_storage": {
        "encoding": "inplace",
        "label": "struct NftMarketplace.Nft",
        "members": [
          {
            "astId": 2733,
            "contract": "contracts/NftMarketplace.sol:NftMarketplace",
            "label": "id",
            "offset": 0,
            "slot": "0",
            "type": "t_uint256"
          },
          {
            "astId": 2735,
            "contract": "contracts/NftMarketplace.sol:NftMarketplace",
            "label": "owner",
            "offset": 0,
            "slot": "1",
            "type": "t_address"
          },
          {
            "astId": 2737,
            "contract": "contracts/NftMarketplace.sol:NftMarketplace",
            "label": "uri",
            "offset": 0,
            "slot": "2",
            "type": "t_string_storage"
          },
          {
            "astId": 2739,
            "contract": "contracts/NftMarketplace.sol:NftMarketplace",
            "label": "isListed",
            "offset": 0,
            "slot": "3",
            "type": "t_bool"
          },
          {
            "astId": 2741,
            "contract": "contracts/NftMarketplace.sol:NftMarketplace",
            "label": "price",
            "offset": 0,
            "slot": "4",
            "type": "t_uint256"
          }
        ],
        "numberOfBytes": "160"
      },
      "t_uint256": {
        "encoding": "inplace",
        "label": "uint256",
        "numberOfBytes": "32"
      }
    }
  }
}