{
  "address": "0xbB8B4a12612B67E034261644A6f3dfe8f5A75482",
  "abi": [
    {
      "inputs": [],
      "stateMutability": "nonpayable",
      "type": "constructor"
    },
    {
      "anonymous": false,
      "inputs": [
        {
          "indexed": true,
          "internalType": "address",
          "name": "owner",
          "type": "address"
        },
        {
          "indexed": true,
          "internalType": "address",
          "name": "approved",
          "type": "address"
        },
        {
          "indexed": true,
          "internalType": "uint256",
          "name": "tokenId",
          "type": "uint256"
        }
      ],
      "name": "Approval",
      "type": "event"
    },
    {
      "anonymous": false,
      "inputs": [
        {
          "indexed": true,
          "internalType": "address",
          "name": "owner",
          "type": "address"
        },
        {
          "indexed": true,
          "internalType": "address",
          "name": "operator",
          "type": "address"
        },
        {
          "indexed": false,
          "internalType": "bool",
          "name": "approved",
          "type": "bool"
        }
      ],
      "name": "ApprovalForAll",
      "type": "event"
    },
    {
      "anonymous": false,
      "inputs": [
        {
          "indexed": true,
          "internalType": "address",
          "name": "owner",
          "type": "address"
        },
        {
          "indexed": true,
          "internalType": "uint256",
          "name": "tokenId",
          "type": "uint256"
        }
      ],
      "name": "NftListed",
      "type": "event"
    },
    {
      "anonymous": false,
      "inputs": [
        {
          "indexed": true,
          "internalType": "address",
          "name": "owner",
          "type": "address"
        },
        {
          "indexed": true,
          "internalType": "uint256",
          "name": "tokenId",
          "type": "uint256"
        }
      ],
      "name": "NftMinted",
      "type": "event"
    },
    {
      "anonymous": false,
      "inputs": [
        {
          "indexed": true,
          "internalType": "address",
          "name": "from",
          "type": "address"
        },
        {
          "indexed": true,
          "internalType": "address",
          "name": "to",
          "type": "address"
        },
        {
          "indexed": true,
          "internalType": "uint256",
          "name": "tokenId",
          "type": "uint256"
        }
      ],
      "name": "Transfer",
      "type": "event"
    },
    {
      "inputs": [],
      "name": "_listedNfts",
      "outputs": [
        {
          "internalType": "uint256",
          "name": "_value",
          "type": "uint256"
        }
      ],
      "stateMutability": "view",
      "type": "function"
    },
    {
      "inputs": [],
      "name": "_nftId",
      "outputs": [
        {
          "internalType": "uint256",
          "name": "_value",
          "type": "uint256"
        }
      ],
      "stateMutability": "view",
      "type": "function"
    },
    {
      "inputs": [
        {
          "internalType": "address",
          "name": "to",
          "type": "address"
        },
        {
          "internalType": "uint256",
          "name": "tokenId",
          "type": "uint256"
        }
      ],
      "name": "approve",
      "outputs": [],
      "stateMutability": "nonpayable",
      "type": "function"
    },
    {
      "inputs": [
        {
          "internalType": "address",
          "name": "owner",
          "type": "address"
        }
      ],
      "name": "balanceOf",
      "outputs": [
        {
          "internalType": "uint256",
          "name": "",
          "type": "uint256"
        }
      ],
      "stateMutability": "view",
      "type": "function"
    },
    {
      "inputs": [
        {
          "internalType": "uint256",
          "name": "nftId",
          "type": "uint256"
        }
      ],
      "name": "buyNft",
      "outputs": [],
      "stateMutability": "payable",
      "type": "function"
    },
    {
      "inputs": [
        {
          "internalType": "uint256",
          "name": "tokenId",
          "type": "uint256"
        }
      ],
      "name": "getApproved",
      "outputs": [
        {
          "internalType": "address",
          "name": "",
          "type": "address"
        }
      ],
      "stateMutability": "view",
      "type": "function"
    },
    {
      "inputs": [],
      "name": "getListedNfts",
      "outputs": [
        {
          "components": [
            {
              "internalType": "uint256",
              "name": "id",
              "type": "uint256"
            },
            {
              "internalType": "address",
              "name": "owner",
              "type": "address"
            },
            {
              "internalType": "string",
              "name": "uri",
              "type": "string"
            },
            {
              "internalType": "bool",
              "name": "isListed",
              "type": "bool"
            },
            {
              "internalType": "uint256",
              "name": "price",
              "type": "uint256"
            }
          ],
          "internalType": "struct NftMarketplace.Nft[]",
          "name": "",
          "type": "tuple[]"
        }
      ],
      "stateMutability": "view",
      "type": "function"
    },
    {
      "inputs": [
        {
          "internalType": "uint256",
          "name": "tokenId",
          "type": "uint256"
        }
      ],
      "name": "getMintedNfts",
      "outputs": [
        {
          "components": [
            {
              "internalType": "uint256",
              "name": "id",
              "type": "uint256"
            },
            {
              "internalType": "address",
              "name": "owner",
              "type": "address"
            },
            {
              "internalType": "string",
              "name": "uri",
              "type": "string"
            },
            {
              "internalType": "bool",
              "name": "isListed",
              "type": "bool"
            },
            {
              "internalType": "uint256",
              "name": "price",
              "type": "uint256"
            }
          ],
          "internalType": "struct NftMarketplace.Nft",
          "name": "",
          "type": "tuple"
        }
      ],
      "stateMutability": "view",
      "type": "function"
    },
    {
      "inputs": [
        {
          "internalType": "address",
          "name": "owner",
          "type": "address"
        }
      ],
      "name": "getOwnedNfts",
      "outputs": [
        {
          "internalType": "uint256[]",
          "name": "",
          "type": "uint256[]"
        }
      ],
      "stateMutability": "view",
      "type": "function"
    },
    {
      "inputs": [
        {
          "internalType": "address",
          "name": "owner",
          "type": "address"
        },
        {
          "internalType": "address",
          "name": "operator",
          "type": "address"
        }
      ],
      "name": "isApprovedForAll",
      "outputs": [
        {
          "internalType": "bool",
          "name": "",
          "type": "bool"
        }
      ],
      "stateMutability": "view",
      "type": "function"
    },
    {
      "inputs": [
        {
          "internalType": "uint256",
          "name": "nftId",
          "type": "uint256"
        },
        {
          "internalType": "uint256",
          "name": "price",
          "type": "uint256"
        }
      ],
      "name": "listNft",
      "outputs": [],
      "stateMutability": "nonpayable",
      "type": "function"
    },
    {
      "inputs": [
        {
          "internalType": "string",
          "name": "tokenURI",
          "type": "string"
        }
      ],
      "name": "mint",
      "outputs": [],
      "stateMutability": "nonpayable",
      "type": "function"
    },
    {
      "inputs": [
        {
          "internalType": "uint256",
          "name": "",
          "type": "uint256"
        }
      ],
      "name": "mintedNfts",
      "outputs": [
        {
          "internalType": "uint256",
          "name": "id",
          "type": "uint256"
        },
        {
          "internalType": "address",
          "name": "owner",
          "type": "address"
        },
        {
          "internalType": "string",
          "name": "uri",
          "type": "string"
        },
        {
          "internalType": "bool",
          "name": "isListed",
          "type": "bool"
        },
        {
          "internalType": "uint256",
          "name": "price",
          "type": "uint256"
        }
      ],
      "stateMutability": "view",
      "type": "function"
    },
    {
      "inputs": [],
      "name": "name",
      "outputs": [
        {
          "internalType": "string",
          "name": "",
          "type": "string"
        }
      ],
      "stateMutability": "view",
      "type": "function"
    },
    {
      "inputs": [
        {
          "internalType": "address",
          "name": "",
          "type": "address"
        },
        {
          "internalType": "uint256",
          "name": "",
          "type": "uint256"
        }
      ],
      "name": "ownedNfts",
      "outputs": [
        {
          "internalType": "uint256",
          "name": "",
          "type": "uint256"
        }
      ],
      "stateMutability": "view",
      "type": "function"
    },
    {
      "inputs": [
        {
          "internalType": "uint256",
          "name": "tokenId",
          "type": "uint256"
        }
      ],
      "name": "ownerOf",
      "outputs": [
        {
          "internalType": "address",
          "name": "",
          "type": "address"
        }
      ],
      "stateMutability": "view",
      "type": "function"
    },
    {
      "inputs": [
        {
          "internalType": "address",
          "name": "from",
          "type": "address"
        },
        {
          "internalType": "address",
          "name": "to",
          "type": "address"
        },
        {
          "internalType": "uint256",
          "name": "tokenId",
          "type": "uint256"
        }
      ],
      "name": "safeTransferFrom",
      "outputs": [],
      "stateMutability": "nonpayable",
      "type": "function"
    },
    {
      "inputs": [
        {
          "internalType": "address",
          "name": "from",
          "type": "address"
        },
        {
          "internalType": "address",
          "name": "to",
          "type": "address"
        },
        {
          "internalType": "uint256",
          "name": "tokenId",
          "type": "uint256"
        },
        {
          "internalType": "bytes",
          "name": "data",
          "type": "bytes"
        }
      ],
      "name": "safeTransferFrom",
      "outputs": [],
      "stateMutability": "nonpayable",
      "type": "function"
    },
    {
      "inputs": [
        {
          "internalType": "address",
          "name": "operator",
          "type": "address"
        },
        {
          "internalType": "bool",
          "name": "approved",
          "type": "bool"
        }
      ],
      "name": "setApprovalForAll",
      "outputs": [],
      "stateMutability": "nonpayable",
      "type": "function"
    },
    {
      "inputs": [
        {
          "internalType": "bytes4",
          "name": "interfaceId",
          "type": "bytes4"
        }
      ],
      "name": "supportsInterface",
      "outputs": [
        {
          "internalType": "bool",
          "name": "",
          "type": "bool"
        }
      ],
      "stateMutability": "view",
      "type": "function"
    },
    {
      "inputs": [],
      "name": "symbol",
      "outputs": [
        {
          "internalType": "string",
          "name": "",
          "type": "string"
        }
      ],
      "stateMutability": "view",
      "type": "function"
    },
    {
      "inputs": [
        {
          "internalType": "uint256",
          "name": "tokenId",
          "type": "uint256"
        }
      ],
      "name": "tokenURI",
      "outputs": [
        {
          "internalType": "string",
          "name": "",
          "type": "string"
        }
      ],
      "stateMutability": "view",
      "type": "function"
    },
    {
      "inputs": [
        {
          "internalType": "address",
          "name": "from",
          "type": "address"
        },
        {
          "internalType": "address",
          "name": "to",
          "type": "address"
        },
        {
          "internalType": "uint256",
          "name": "tokenId",
          "type": "uint256"
        }
      ],
      "name": "transferFrom",
      "outputs": [],
      "stateMutability": "nonpayable",
      "type": "function"
    }
  ],
  "transactionHash": "0xabb38713b8de7a6e5c2389a5123ac268c6d4c938b417dcf956bb06c9bc1f4930",
  "args": [],
  "numDeployments": 1,
  "solcInputHash": "16cb402a560fbd18cd04cd96e6d403ee",
  "bytecode": "0x60806040523480156200001157600080fd5b506040518060400160405280600781526020017f4d79546f6b656e000000000000000000000000000000000000000000000000008152506040518060400160405280600381526020017f4d544b000000000000000000000000000000000000000000000000000000000081525081600090816200008f919062000324565b508060019081620000a1919062000324565b5050506200040b565b600081519050919050565b7f4e487b7100000000000000000000000000000000000000000000000000000000600052604160045260246000fd5b7f4e487b7100000000000000000000000000000000000000000000000000000000600052602260045260246000fd5b600060028204905060018216806200012c57607f821691505b602082108103620001425762000141620000e4565b5b50919050565b60008190508160005260206000209050919050565b60006020601f8301049050919050565b600082821b905092915050565b600060088302620001ac7fffffffffffffffffffffffffffffffffffffffffffffffffffffffffffffffff826200016d565b620001b886836200016d565b95508019841693508086168417925050509392505050565b6000819050919050565b6000819050919050565b600062000205620001ff620001f984620001d0565b620001da565b620001d0565b9050919050565b6000819050919050565b6200022183620001e4565b6200023962000230826200020c565b8484546200017a565b825550505050565b600090565b6200025062000241565b6200025d81848462000216565b505050565b5b8181101562000285576200027960008262000246565b60018101905062000263565b5050565b601f821115620002d4576200029e8162000148565b620002a9846200015d565b81016020851015620002b9578190505b620002d1620002c8856200015d565b83018262000262565b50505b505050565b600082821c905092915050565b6000620002f960001984600802620002d9565b1980831691505092915050565b6000620003148383620002e6565b9150826002028217905092915050565b6200032f82620000aa565b67ffffffffffffffff8111156200034b576200034a620000b5565b5b62000357825462000113565b6200036482828562000289565b600060209050601f8311600181146200039c576000841562000387578287015190505b62000393858262000306565b86555062000403565b601f198416620003ac8662000148565b60005b82811015620003d657848901518255600182019150602085019450602081019050620003af565b86831015620003f65784890151620003f2601f891682620002e6565b8355505b6001600288020188555050505b505050505050565b6146ca806200041b6000396000f3fe6080604052600436106101405760003560e01c80636352211e116100b6578063c7adece01161006f578063c7adece014610473578063c87b56dd146104b0578063d85d3d27146104ed578063e985e9c514610516578063f761561314610553578063fe8723e11461059457610140565b80636352211e1461035157806370a082311461038e5780638d6cb3fb146103cb57806395d89b41146103f6578063a22cb46514610421578063b88d4fde1461044a57610140565b806323b872dd1161010857806323b872dd1461023e578063243adbdd146102675780633d9a3479146102835780633efbf91c146102c057806342842e0e146102eb578063491dc25a1461031457610140565b806301ffc9a71461014557806306fdde0314610182578063081812fc146101ad578063095ea7b3146101ea57806313d43fb114610213575b600080fd5b34801561015157600080fd5b5061016c60048036038101906101679190612df5565b6105bd565b6040516101799190612e3d565b60405180910390f35b34801561018e57600080fd5b5061019761069f565b6040516101a49190612ee8565b60405180910390f35b3480156101b957600080fd5b506101d460048036038101906101cf9190612f40565b610731565b6040516101e19190612fae565b60405180910390f35b3480156101f657600080fd5b50610211600480360381019061020c9190612ff5565b610777565b005b34801561021f57600080fd5b5061022861088e565b6040516102359190613044565b60405180910390f35b34801561024a57600080fd5b506102656004803603810190610260919061305f565b61089a565b005b610281600480360381019061027c9190612f40565b6108fa565b005b34801561028f57600080fd5b506102aa60048036038101906102a59190612ff5565b611020565b6040516102b79190613044565b60405180910390f35b3480156102cc57600080fd5b506102d5611051565b6040516102e29190613044565b60405180910390f35b3480156102f757600080fd5b50610312600480360381019061030d919061305f565b61105d565b005b34801561032057600080fd5b5061033b60048036038101906103369190612f40565b61107d565b604051610348919061319f565b60405180910390f35b34801561035d57600080fd5b5061037860048036038101906103739190612f40565b6111c1565b6040516103859190612fae565b60405180910390f35b34801561039a57600080fd5b506103b560048036038101906103b091906131c1565b611247565b6040516103c29190613044565b60405180910390f35b3480156103d757600080fd5b506103e06112fe565b6040516103ed9190613326565b60405180910390f35b34801561040257600080fd5b5061040b611526565b6040516104189190612ee8565b60405180910390f35b34801561042d57600080fd5b5061044860048036038101906104439190613374565b6115b8565b005b34801561045657600080fd5b50610471600480360381019061046c91906134e9565b6115ce565b005b34801561047f57600080fd5b5061049a600480360381019061049591906131c1565b611630565b6040516104a7919061361b565b60405180910390f35b3480156104bc57600080fd5b506104d760048036038101906104d29190612f40565b6116c7565b6040516104e49190612ee8565b60405180910390f35b3480156104f957600080fd5b50610514600480360381019061050f91906136de565b6117d9565b005b34801561052257600080fd5b5061053d60048036038101906105389190613727565b6119a1565b60405161054a9190612e3d565b60405180910390f35b34801561055f57600080fd5b5061057a60048036038101906105759190612f40565b611a35565b60405161058b959493929190613767565b60405180910390f35b3480156105a057600080fd5b506105bb60048036038101906105b691906137c1565b611b20565b005b60007f80ac58cd000000000000000000000000000000000000000000000000000000007bffffffffffffffffffffffffffffffffffffffffffffffffffffffff1916827bffffffffffffffffffffffffffffffffffffffffffffffffffffffff1916148061068857507f5b5e139f000000000000000000000000000000000000000000000000000000007bffffffffffffffffffffffffffffffffffffffffffffffffffffffff1916827bffffffffffffffffffffffffffffffffffffffffffffffffffffffff1916145b80610698575061069782611e2e565b5b9050919050565b6060600080546106ae90613830565b80601f01602080910402602001604051908101604052809291908181526020018280546106da90613830565b80156107275780601f106106fc57610100808354040283529160200191610727565b820191906000526020600020905b81548152906001019060200180831161070a57829003601f168201915b5050505050905090565b600061073c82611e98565b6004600083815260200190815260200160002060009054906101000a900473ffffffffffffffffffffffffffffffffffffffff169050919050565b6000610782826111c1565b90508073ffffffffffffffffffffffffffffffffffffffff168373ffffffffffffffffffffffffffffffffffffffff16036107f2576040517f08c379a00000000000000000000000000000000000000000000000000000000081526004016107e9906138d3565b60405180910390fd5b8073ffffffffffffffffffffffffffffffffffffffff16610811611ee3565b73ffffffffffffffffffffffffffffffffffffffff161480610840575061083f8161083a611ee3565b6119a1565b5b61087f576040517f08c379a000000000000000000000000000000000000000000000000000000000815260040161087690613965565b60405180910390fd5b6108898383611eeb565b505050565b60088060000154905081565b6108ab6108a5611ee3565b82611fa4565b6108ea576040517f08c379a00000000000000000000000000000000000000000000000000000000081526004016108e1906139f7565b60405180910390fd5b6108f5838383612039565b505050565b6000600960008381526020019081526020016000206040518060a0016040529081600082015481526020016001820160009054906101000a900473ffffffffffffffffffffffffffffffffffffffff1673ffffffffffffffffffffffffffffffffffffffff1673ffffffffffffffffffffffffffffffffffffffff16815260200160028201805461098a90613830565b80601f01602080910402602001604051908101604052809291908181526020018280546109b690613830565b8015610a035780601f106109d857610100808354040283529160200191610a03565b820191906000526020600020905b8154815290600101906020018083116109e657829003601f168201915b505050505081526020016003820160009054906101000a900460ff16151515158152602001600482015481525050905060008160200151905060003390503373ffffffffffffffffffffffffffffffffffffffff16836020015173ffffffffffffffffffffffffffffffffffffffff1603610ab3576040517f08c379a0000000000000000000000000000000000000000000000000000000008152600401610aaa90613a63565b60405180910390fd5b600115158360600151151514610afe576040517f08c379a0000000000000000000000000000000000000000000000000000000008152600401610af590613af5565b60405180910390fd5b34836080015114610b44576040517f08c379a0000000000000000000000000000000000000000000000000000000008152600401610b3b90613b87565b60405180910390fd5b600083606001901515908115158152505080836020019073ffffffffffffffffffffffffffffffffffffffff16908173ffffffffffffffffffffffffffffffffffffffff1681525050600083608001818152505082600960008681526020019081526020016000206000820151816000015560208201518160010160006101000a81548173ffffffffffffffffffffffffffffffffffffffff021916908373ffffffffffffffffffffffffffffffffffffffff1602179055506040820151816002019081610c129190613d53565b5060608201518160030160006101000a81548160ff021916908315150217905550608082015181600401559050506001600a60008473ffffffffffffffffffffffffffffffffffffffff1673ffffffffffffffffffffffffffffffffffffffff1681526020019081526020016000208054905003610d2c57600067ffffffffffffffff811115610ca557610ca46133be565b5b604051908082528060200260200182016040528015610cd35781602001602082028036833780820191505090505b50600a60008473ffffffffffffffffffffffffffffffffffffffff1673ffffffffffffffffffffffffffffffffffffffff1681526020019081526020016000209080519060200190610d26929190612cd8565b50610f63565b60005b600a60008473ffffffffffffffffffffffffffffffffffffffff1673ffffffffffffffffffffffffffffffffffffffff16815260200190815260200160002080549050811015610f615784600a60008573ffffffffffffffffffffffffffffffffffffffff1673ffffffffffffffffffffffffffffffffffffffff1681526020019081526020016000208281548110610dcb57610dca613e25565b5b906000526020600020015403610f4e57600a60008473ffffffffffffffffffffffffffffffffffffffff1673ffffffffffffffffffffffffffffffffffffffff1681526020019081526020016000206001600a60008673ffffffffffffffffffffffffffffffffffffffff1673ffffffffffffffffffffffffffffffffffffffff16815260200190815260200160002080549050610e699190613e83565b81548110610e7a57610e79613e25565b5b9060005260206000200154600a60008573ffffffffffffffffffffffffffffffffffffffff1673ffffffffffffffffffffffffffffffffffffffff1681526020019081526020016000208281548110610ed657610ed5613e25565b5b9060005260206000200181905550600a60008473ffffffffffffffffffffffffffffffffffffffff1673ffffffffffffffffffffffffffffffffffffffff168152602001908152602001600020805480610f3357610f32613eb7565b5b60019003818190600052602060002001600090559055610f61565b8080610f5990613ee6565b915050610d2f565b505b600a60008273ffffffffffffffffffffffffffffffffffffffff1673ffffffffffffffffffffffffffffffffffffffff1681526020019081526020016000208490806001815401808255809150506001900390600052602060002001600090919091909150558173ffffffffffffffffffffffffffffffffffffffff166108fc349081150290604051600060405180830381858888f1935050505015801561100f573d6000803e3d6000fd5b5061101a6008612332565b50505050565b600a602052816000526040600020818154811061103c57600080fd5b90600052602060002001600091509150505481565b60078060000154905081565b611078838383604051806020016040528060008152506115ce565b505050565b611085612d25565b600960008381526020019081526020016000206040518060a0016040529081600082015481526020016001820160009054906101000a900473ffffffffffffffffffffffffffffffffffffffff1673ffffffffffffffffffffffffffffffffffffffff1673ffffffffffffffffffffffffffffffffffffffff16815260200160028201805461111390613830565b80601f016020809104026020016040519081016040528092919081815260200182805461113f90613830565b801561118c5780601f106111615761010080835404028352916020019161118c565b820191906000526020600020905b81548152906001019060200180831161116f57829003601f168201915b505050505081526020016003820160009054906101000a900460ff161515151581526020016004820154815250509050919050565b6000806111cd8361238e565b9050600073ffffffffffffffffffffffffffffffffffffffff168173ffffffffffffffffffffffffffffffffffffffff160361123e576040517f08c379a000000000000000000000000000000000000000000000000000000000815260040161123590613f7a565b60405180910390fd5b80915050919050565b60008073ffffffffffffffffffffffffffffffffffffffff168273ffffffffffffffffffffffffffffffffffffffff16036112b7576040517f08c379a00000000000000000000000000000000000000000000000000000000081526004016112ae9061400c565b60405180910390fd5b600360008373ffffffffffffffffffffffffffffffffffffffff1673ffffffffffffffffffffffffffffffffffffffff168152602001908152602001600020549050919050565b6060600061130c60086123cb565b67ffffffffffffffff811115611325576113246133be565b5b60405190808252806020026020018201604052801561135e57816020015b61134b612d25565b8152602001906001900390816113435790505b509050600080600190505b61137360076123cb565b811161151d57600115156009600083815260200190815260200160002060030160009054906101000a900460ff1615150361150a57600960008281526020019081526020016000206040518060a0016040529081600082015481526020016001820160009054906101000a900473ffffffffffffffffffffffffffffffffffffffff1673ffffffffffffffffffffffffffffffffffffffff1673ffffffffffffffffffffffffffffffffffffffff16815260200160028201805461143690613830565b80601f016020809104026020016040519081016040528092919081815260200182805461146290613830565b80156114af5780601f10611484576101008083540402835291602001916114af565b820191906000526020600020905b81548152906001019060200180831161149257829003601f168201915b505050505081526020016003820160009054906101000a900460ff161515151581526020016004820154815250508383815181106114f0576114ef613e25565b5b6020026020010181905250818061150690613ee6565b9250505b808061151590613ee6565b915050611369565b50819250505090565b60606001805461153590613830565b80601f016020809104026020016040519081016040528092919081815260200182805461156190613830565b80156115ae5780601f10611583576101008083540402835291602001916115ae565b820191906000526020600020905b81548152906001019060200180831161159157829003601f168201915b5050505050905090565b6115ca6115c3611ee3565b83836123d9565b5050565b6115df6115d9611ee3565b83611fa4565b61161e576040517f08c379a0000000000000000000000000000000000000000000000000000000008152600401611615906139f7565b60405180910390fd5b61162a84848484612545565b50505050565b6060600a60008373ffffffffffffffffffffffffffffffffffffffff1673ffffffffffffffffffffffffffffffffffffffff1681526020019081526020016000208054806020026020016040519081016040528092919081815260200182805480156116bb57602002820191906000526020600020905b8154815260200190600101908083116116a7575b50505050509050919050565b60606116d282611e98565b60006006600084815260200190815260200160002080546116f290613830565b80601f016020809104026020016040519081016040528092919081815260200182805461171e90613830565b801561176b5780601f106117405761010080835404028352916020019161176b565b820191906000526020600020905b81548152906001019060200180831161174e57829003601f168201915b50505050509050600061177c6125a1565b905060008151036117915781925050506117d4565b6000825111156117c65780826040516020016117ae929190614068565b604051602081830303815290604052925050506117d4565b6117cf846125b8565b925050505b919050565b6117e36007612620565b60006117ef60076123cb565b90506117fb3382612636565b6118058183612853565b60006040518060a001604052808381526020013373ffffffffffffffffffffffffffffffffffffffff1681526020018481526020016000151581526020016000815250905080600960008481526020019081526020016000206000820151816000015560208201518160010160006101000a81548173ffffffffffffffffffffffffffffffffffffffff021916908373ffffffffffffffffffffffffffffffffffffffff16021790555060408201518160020190816118c49190613d53565b5060608201518160030160006101000a81548160ff02191690831515021790555060808201518160040155905050600a60003373ffffffffffffffffffffffffffffffffffffffff1673ffffffffffffffffffffffffffffffffffffffff168152602001908152602001600020829080600181540180825580915050600190039060005260206000200160009091909190915055813373ffffffffffffffffffffffffffffffffffffffff167ff2b290a76feb54be358b555507421d765609171aefa0646f109a653228ff81b860405160405180910390a3505050565b6000600560008473ffffffffffffffffffffffffffffffffffffffff1673ffffffffffffffffffffffffffffffffffffffff16815260200190815260200160002060008373ffffffffffffffffffffffffffffffffffffffff1673ffffffffffffffffffffffffffffffffffffffff16815260200190815260200160002060009054906101000a900460ff16905092915050565b60096020528060005260406000206000915090508060000154908060010160009054906101000a900473ffffffffffffffffffffffffffffffffffffffff1690806002018054611a8490613830565b80601f0160208091040260200160405190810160405280929190818152602001828054611ab090613830565b8015611afd5780601f10611ad257610100808354040283529160200191611afd565b820191906000526020600020905b815481529060010190602001808311611ae057829003601f168201915b5050505050908060030160009054906101000a900460ff16908060040154905085565b6000600960008481526020019081526020016000206040518060a0016040529081600082015481526020016001820160009054906101000a900473ffffffffffffffffffffffffffffffffffffffff1673ffffffffffffffffffffffffffffffffffffffff1673ffffffffffffffffffffffffffffffffffffffff168152602001600282018054611bb090613830565b80601f0160208091040260200160405190810160405280929190818152602001828054611bdc90613830565b8015611c295780601f10611bfe57610100808354040283529160200191611c29565b820191906000526020600020905b815481529060010190602001808311611c0c57829003601f168201915b505050505081526020016003820160009054906101000a900460ff1615151515815260200160048201548152505090503373ffffffffffffffffffffffffffffffffffffffff16816020015173ffffffffffffffffffffffffffffffffffffffff1614611ccb576040517f08c379a0000000000000000000000000000000000000000000000000000000008152600401611cc2906140fe565b60405180910390fd5b60008211611d0e576040517f08c379a0000000000000000000000000000000000000000000000000000000008152600401611d059061416a565b60405180910390fd5b60018160600190151590811515815250508181608001818152505080600960008581526020019081526020016000206000820151816000015560208201518160010160006101000a81548173ffffffffffffffffffffffffffffffffffffffff021916908373ffffffffffffffffffffffffffffffffffffffff1602179055506040820151816002019081611da39190613d53565b5060608201518160030160006101000a81548160ff02191690831515021790555060808201518160040155905050611ddb3084610777565b611de56008612620565b823373ffffffffffffffffffffffffffffffffffffffff167ffeb6b1bbfab86e1a18f98d4a755de1dc8776a8aee9b4adfafae0e91e2eddddc460405160405180910390a3505050565b60007f01ffc9a7000000000000000000000000000000000000000000000000000000007bffffffffffffffffffffffffffffffffffffffffffffffffffffffff1916827bffffffffffffffffffffffffffffffffffffffffffffffffffffffff1916149050919050565b611ea1816128c0565b611ee0576040517f08c379a0000000000000000000000000000000000000000000000000000000008152600401611ed790613f7a565b60405180910390fd5b50565b600033905090565b816004600083815260200190815260200160002060006101000a81548173ffffffffffffffffffffffffffffffffffffffff021916908373ffffffffffffffffffffffffffffffffffffffff160217905550808273ffffffffffffffffffffffffffffffffffffffff16611f5e836111c1565b73ffffffffffffffffffffffffffffffffffffffff167f8c5be1e5ebec7d5bd14f71427d1e84f3dd0314c0f7b2291e5b200ac8c7c3b92560405160405180910390a45050565b600080611fb0836111c1565b90508073ffffffffffffffffffffffffffffffffffffffff168473ffffffffffffffffffffffffffffffffffffffff161480611ff25750611ff181856119a1565b5b8061203057508373ffffffffffffffffffffffffffffffffffffffff1661201884610731565b73ffffffffffffffffffffffffffffffffffffffff16145b91505092915050565b8273ffffffffffffffffffffffffffffffffffffffff16612059826111c1565b73ffffffffffffffffffffffffffffffffffffffff16146120af576040517f08c379a00000000000000000000000000000000000000000000000000000000081526004016120a6906141fc565b60405180910390fd5b600073ffffffffffffffffffffffffffffffffffffffff168273ffffffffffffffffffffffffffffffffffffffff160361211e576040517f08c379a00000000000000000000000000000000000000000000000000000000081526004016121159061428e565b60405180910390fd5b61212b8383836001612901565b8273ffffffffffffffffffffffffffffffffffffffff1661214b826111c1565b73ffffffffffffffffffffffffffffffffffffffff16146121a1576040517f08c379a0000000000000000000000000000000000000000000000000000000008152600401612198906141fc565b60405180910390fd5b6004600082815260200190815260200160002060006101000a81549073ffffffffffffffffffffffffffffffffffffffff02191690556001600360008573ffffffffffffffffffffffffffffffffffffffff1673ffffffffffffffffffffffffffffffffffffffff168152602001908152602001600020600082825403925050819055506001600360008473ffffffffffffffffffffffffffffffffffffffff1673ffffffffffffffffffffffffffffffffffffffff16815260200190815260200160002060008282540192505081905550816002600083815260200190815260200160002060006101000a81548173ffffffffffffffffffffffffffffffffffffffff021916908373ffffffffffffffffffffffffffffffffffffffff160217905550808273ffffffffffffffffffffffffffffffffffffffff168473ffffffffffffffffffffffffffffffffffffffff167fddf252ad1be2c89b69c2b068fc378daa952ba7f163c4a11628f55a4df523b3ef60405160405180910390a461232d8383836001612907565b505050565b6000816000015490506000811161237e576040517f08c379a0000000000000000000000000000000000000000000000000000000008152600401612375906142fa565b60405180910390fd5b6001810382600001819055505050565b60006002600083815260200190815260200160002060009054906101000a900473ffffffffffffffffffffffffffffffffffffffff169050919050565b600081600001549050919050565b8173ffffffffffffffffffffffffffffffffffffffff168373ffffffffffffffffffffffffffffffffffffffff1603612447576040517f08c379a000000000000000000000000000000000000000000000000000000000815260040161243e90614366565b60405180910390fd5b80600560008573ffffffffffffffffffffffffffffffffffffffff1673ffffffffffffffffffffffffffffffffffffffff16815260200190815260200160002060008473ffffffffffffffffffffffffffffffffffffffff1673ffffffffffffffffffffffffffffffffffffffff16815260200190815260200160002060006101000a81548160ff0219169083151502179055508173ffffffffffffffffffffffffffffffffffffffff168373ffffffffffffffffffffffffffffffffffffffff167f17307eab39ab6107e8899845ad3d59bd9653f200f220920489ca2b5937696c31836040516125389190612e3d565b60405180910390a3505050565b612550848484612039565b61255c8484848461290d565b61259b576040517f08c379a0000000000000000000000000000000000000000000000000000000008152600401612592906143f8565b60405180910390fd5b50505050565b606060405180602001604052806000815250905090565b60606125c382611e98565b60006125cd6125a1565b905060008151116125ed5760405180602001604052806000815250612618565b806125f784612a94565b604051602001612608929190614068565b6040516020818303038152906040525b915050919050565b6001816000016000828254019250508190555050565b600073ffffffffffffffffffffffffffffffffffffffff168273ffffffffffffffffffffffffffffffffffffffff16036126a5576040517f08c379a000000000000000000000000000000000000000000000000000000000815260040161269c90614464565b60405180910390fd5b6126ae816128c0565b156126ee576040517f08c379a00000000000000000000000000000000000000000000000000000000081526004016126e5906144d0565b60405180910390fd5b6126fc600083836001612901565b612705816128c0565b15612745576040517f08c379a000000000000000000000000000000000000000000000000000000000815260040161273c906144d0565b60405180910390fd5b6001600360008473ffffffffffffffffffffffffffffffffffffffff1673ffffffffffffffffffffffffffffffffffffffff16815260200190815260200160002060008282540192505081905550816002600083815260200190815260200160002060006101000a81548173ffffffffffffffffffffffffffffffffffffffff021916908373ffffffffffffffffffffffffffffffffffffffff160217905550808273ffffffffffffffffffffffffffffffffffffffff16600073ffffffffffffffffffffffffffffffffffffffff167fddf252ad1be2c89b69c2b068fc378daa952ba7f163c4a11628f55a4df523b3ef60405160405180910390a461284f600083836001612907565b5050565b61285c826128c0565b61289b576040517f08c379a000000000000000000000000000000000000000000000000000000000815260040161289290614562565b60405180910390fd5b806006600084815260200190815260200160002090816128bb9190613d53565b505050565b60008073ffffffffffffffffffffffffffffffffffffffff166128e28361238e565b73ffffffffffffffffffffffffffffffffffffffff1614159050919050565b50505050565b50505050565b600061292e8473ffffffffffffffffffffffffffffffffffffffff16612b62565b15612a87578373ffffffffffffffffffffffffffffffffffffffff1663150b7a02612957611ee3565b8786866040518563ffffffff1660e01b815260040161297994939291906145d7565b6020604051808303816000875af19250505080156129b557506040513d601f19601f820116820180604052508101906129b29190614638565b60015b612a37573d80600081146129e5576040519150601f19603f3d011682016040523d82523d6000602084013e6129ea565b606091505b506000815103612a2f576040517f08c379a0000000000000000000000000000000000000000000000000000000008152600401612a26906143f8565b60405180910390fd5b805181602001fd5b63150b7a0260e01b7bffffffffffffffffffffffffffffffffffffffffffffffffffffffff1916817bffffffffffffffffffffffffffffffffffffffffffffffffffffffff191614915050612a8c565b600190505b949350505050565b606060006001612aa384612b85565b01905060008167ffffffffffffffff811115612ac257612ac16133be565b5b6040519080825280601f01601f191660200182016040528015612af45781602001600182028036833780820191505090505b509050600082602001820190505b600115612b57578080600190039150507f3031323334353637383961626364656600000000000000000000000000000000600a86061a8153600a8581612b4b57612b4a614665565b5b04945060008503612b02575b819350505050919050565b6000808273ffffffffffffffffffffffffffffffffffffffff163b119050919050565b600080600090507a184f03e93ff9f4daa797ed6e38ed64bf6a1f0100000000000000008310612be3577a184f03e93ff9f4daa797ed6e38ed64bf6a1f0100000000000000008381612bd957612bd8614665565b5b0492506040810190505b6d04ee2d6d415b85acef81000000008310612c20576d04ee2d6d415b85acef81000000008381612c1657612c15614665565b5b0492506020810190505b662386f26fc100008310612c4f57662386f26fc100008381612c4557612c44614665565b5b0492506010810190505b6305f5e1008310612c78576305f5e1008381612c6e57612c6d614665565b5b0492506008810190505b6127108310612c9d576127108381612c9357612c92614665565b5b0492506004810190505b60648310612cc05760648381612cb657612cb5614665565b5b0492506002810190505b600a8310612ccf576001810190505b80915050919050565b828054828255906000526020600020908101928215612d14579160200282015b82811115612d13578251825591602001919060010190612cf8565b5b509050612d219190612d6c565b5090565b6040518060a0016040528060008152602001600073ffffffffffffffffffffffffffffffffffffffff16815260200160608152602001600015158152602001600081525090565b5b80821115612d85576000816000905550600101612d6d565b5090565b6000604051905090565b600080fd5b600080fd5b60007fffffffff0000000000000000000000000000000000000000000000000000000082169050919050565b612dd281612d9d565b8114612ddd57600080fd5b50565b600081359050612def81612dc9565b92915050565b600060208284031215612e0b57612e0a612d93565b5b6000612e1984828501612de0565b91505092915050565b60008115159050919050565b612e3781612e22565b82525050565b6000602082019050612e526000830184612e2e565b92915050565b600081519050919050565b600082825260208201905092915050565b60005b83811015612e92578082015181840152602081019050612e77565b60008484015250505050565b6000601f19601f8301169050919050565b6000612eba82612e58565b612ec48185612e63565b9350612ed4818560208601612e74565b612edd81612e9e565b840191505092915050565b60006020820190508181036000830152612f028184612eaf565b905092915050565b6000819050919050565b612f1d81612f0a565b8114612f2857600080fd5b50565b600081359050612f3a81612f14565b92915050565b600060208284031215612f5657612f55612d93565b5b6000612f6484828501612f2b565b91505092915050565b600073ffffffffffffffffffffffffffffffffffffffff82169050919050565b6000612f9882612f6d565b9050919050565b612fa881612f8d565b82525050565b6000602082019050612fc36000830184612f9f565b92915050565b612fd281612f8d565b8114612fdd57600080fd5b50565b600081359050612fef81612fc9565b92915050565b6000806040838503121561300c5761300b612d93565b5b600061301a85828601612fe0565b925050602061302b85828601612f2b565b9150509250929050565b61303e81612f0a565b82525050565b60006020820190506130596000830184613035565b92915050565b60008060006060848603121561307857613077612d93565b5b600061308686828701612fe0565b935050602061309786828701612fe0565b92505060406130a886828701612f2b565b9150509250925092565b6130bb81612f0a565b82525050565b6130ca81612f8d565b82525050565b600082825260208201905092915050565b60006130ec82612e58565b6130f681856130d0565b9350613106818560208601612e74565b61310f81612e9e565b840191505092915050565b61312381612e22565b82525050565b600060a08301600083015161314160008601826130b2565b50602083015161315460208601826130c1565b506040830151848203604086015261316c82826130e1565b9150506060830151613181606086018261311a565b50608083015161319460808601826130b2565b508091505092915050565b600060208201905081810360008301526131b98184613129565b905092915050565b6000602082840312156131d7576131d6612d93565b5b60006131e584828501612fe0565b91505092915050565b600081519050919050565b600082825260208201905092915050565b6000819050602082019050919050565b600060a08301600083015161323260008601826130b2565b50602083015161324560208601826130c1565b506040830151848203604086015261325d82826130e1565b9150506060830151613272606086018261311a565b50608083015161328560808601826130b2565b508091505092915050565b600061329c838361321a565b905092915050565b6000602082019050919050565b60006132bc826131ee565b6132c681856131f9565b9350836020820285016132d88561320a565b8060005b8581101561331457848403895281516132f58582613290565b9450613300836132a4565b925060208a019950506001810190506132dc565b50829750879550505050505092915050565b6000602082019050818103600083015261334081846132b1565b905092915050565b61335181612e22565b811461335c57600080fd5b50565b60008135905061336e81613348565b92915050565b6000806040838503121561338b5761338a612d93565b5b600061339985828601612fe0565b92505060206133aa8582860161335f565b9150509250929050565b600080fd5b600080fd5b7f4e487b7100000000000000000000000000000000000000000000000000000000600052604160045260246000fd5b6133f682612e9e565b810181811067ffffffffffffffff82111715613415576134146133be565b5b80604052505050565b6000613428612d89565b905061343482826133ed565b919050565b600067ffffffffffffffff821115613454576134536133be565b5b61345d82612e9e565b9050602081019050919050565b82818337600083830152505050565b600061348c61348784613439565b61341e565b9050828152602081018484840111156134a8576134a76133b9565b5b6134b384828561346a565b509392505050565b600082601f8301126134d0576134cf6133b4565b5b81356134e0848260208601613479565b91505092915050565b6000806000806080858703121561350357613502612d93565b5b600061351187828801612fe0565b945050602061352287828801612fe0565b935050604061353387828801612f2b565b925050606085013567ffffffffffffffff81111561355457613553612d98565b5b613560878288016134bb565b91505092959194509250565b600081519050919050565b600082825260208201905092915050565b6000819050602082019050919050565b60006135a483836130b2565b60208301905092915050565b6000602082019050919050565b60006135c88261356c565b6135d28185613577565b93506135dd83613588565b8060005b8381101561360e5781516135f58882613598565b9750613600836135b0565b9250506001810190506135e1565b5085935050505092915050565b6000602082019050818103600083015261363581846135bd565b905092915050565b600067ffffffffffffffff821115613658576136576133be565b5b61366182612e9e565b9050602081019050919050565b600061368161367c8461363d565b61341e565b90508281526020810184848401111561369d5761369c6133b9565b5b6136a884828561346a565b509392505050565b600082601f8301126136c5576136c46133b4565b5b81356136d584826020860161366e565b91505092915050565b6000602082840312156136f4576136f3612d93565b5b600082013567ffffffffffffffff81111561371257613711612d98565b5b61371e848285016136b0565b91505092915050565b6000806040838503121561373e5761373d612d93565b5b600061374c85828601612fe0565b925050602061375d85828601612fe0565b9150509250929050565b600060a08201905061377c6000830188613035565b6137896020830187612f9f565b818103604083015261379b8186612eaf565b90506137aa6060830185612e2e565b6137b76080830184613035565b9695505050505050565b600080604083850312156137d8576137d7612d93565b5b60006137e685828601612f2b565b92505060206137f785828601612f2b565b9150509250929050565b7f4e487b7100000000000000000000000000000000000000000000000000000000600052602260045260246000fd5b6000600282049050600182168061384857607f821691505b60208210810361385b5761385a613801565b5b50919050565b7f4552433732313a20617070726f76616c20746f2063757272656e74206f776e6560008201527f7200000000000000000000000000000000000000000000000000000000000000602082015250565b60006138bd602183612e63565b91506138c882613861565b604082019050919050565b600060208201905081810360008301526138ec816138b0565b9050919050565b7f4552433732313a20617070726f76652063616c6c6572206973206e6f7420746f60008201527f6b656e206f776e6572206f7220617070726f76656420666f7220616c6c000000602082015250565b600061394f603d83612e63565b915061395a826138f3565b604082019050919050565b6000602082019050818103600083015261397e81613942565b9050919050565b7f4552433732313a2063616c6c6572206973206e6f7420746f6b656e206f776e6560008201527f72206f7220617070726f76656400000000000000000000000000000000000000602082015250565b60006139e1602d83612e63565b91506139ec82613985565b604082019050919050565b60006020820190508181036000830152613a10816139d4565b9050919050565b7f596f752063616e742062757920796f7572206f776e204e465400000000000000600082015250565b6000613a4d601983612e63565b9150613a5882613a17565b602082019050919050565b60006020820190508181036000830152613a7c81613a40565b9050919050565b7f4e4654207468617420796f752061726520747279696e6720746f20627579206960008201527f73206e6f74206c697374656420666f722073616c650000000000000000000000602082015250565b6000613adf603583612e63565b9150613aea82613a83565b604082019050919050565b60006020820190508181036000830152613b0e81613ad2565b9050919050565b7f596f752068617665206e6f742070617965642074686520636f7272656374207060008201527f7269636500000000000000000000000000000000000000000000000000000000602082015250565b6000613b71602483612e63565b9150613b7c82613b15565b604082019050919050565b60006020820190508181036000830152613ba081613b64565b9050919050565b60008190508160005260206000209050919050565b60006020601f8301049050919050565b600082821b905092915050565b600060088302613c097fffffffffffffffffffffffffffffffffffffffffffffffffffffffffffffffff82613bcc565b613c138683613bcc565b95508019841693508086168417925050509392505050565b6000819050919050565b6000613c50613c4b613c4684612f0a565b613c2b565b612f0a565b9050919050565b6000819050919050565b613c6a83613c35565b613c7e613c7682613c57565b848454613bd9565b825550505050565b600090565b613c93613c86565b613c9e818484613c61565b505050565b5b81811015613cc257613cb7600082613c8b565b600181019050613ca4565b5050565b601f821115613d0757613cd881613ba7565b613ce184613bbc565b81016020851015613cf0578190505b613d04613cfc85613bbc565b830182613ca3565b50505b505050565b600082821c905092915050565b6000613d2a60001984600802613d0c565b1980831691505092915050565b6000613d438383613d19565b9150826002028217905092915050565b613d5c82612e58565b67ffffffffffffffff811115613d7557613d746133be565b5b613d7f8254613830565b613d8a828285613cc6565b600060209050601f831160018114613dbd5760008415613dab578287015190505b613db58582613d37565b865550613e1d565b601f198416613dcb86613ba7565b60005b82811015613df357848901518255600182019150602085019450602081019050613dce565b86831015613e105784890151613e0c601f891682613d19565b8355505b6001600288020188555050505b505050505050565b7f4e487b7100000000000000000000000000000000000000000000000000000000600052603260045260246000fd5b7f4e487b7100000000000000000000000000000000000000000000000000000000600052601160045260246000fd5b6000613e8e82612f0a565b9150613e9983612f0a565b9250828203905081811115613eb157613eb0613e54565b5b92915050565b7f4e487b7100000000000000000000000000000000000000000000000000000000600052603160045260246000fd5b6000613ef182612f0a565b91507fffffffffffffffffffffffffffffffffffffffffffffffffffffffffffffffff8203613f2357613f22613e54565b5b600182019050919050565b7f4552433732313a20696e76616c696420746f6b656e2049440000000000000000600082015250565b6000613f64601883612e63565b9150613f6f82613f2e565b602082019050919050565b60006020820190508181036000830152613f9381613f57565b9050919050565b7f4552433732313a2061646472657373207a65726f206973206e6f74206120766160008201527f6c6964206f776e65720000000000000000000000000000000000000000000000602082015250565b6000613ff6602983612e63565b915061400182613f9a565b604082019050919050565b6000602082019050818103600083015261402581613fe9565b9050919050565b600081905092915050565b600061404282612e58565b61404c818561402c565b935061405c818560208601612e74565b80840191505092915050565b60006140748285614037565b91506140808284614037565b91508190509392505050565b7f596f7520617265206e6f7420746865206f776e6572206f662074686973204e4660008201527f5400000000000000000000000000000000000000000000000000000000000000602082015250565b60006140e8602183612e63565b91506140f38261408c565b604082019050919050565b60006020820190508181036000830152614117816140db565b9050919050565b7f5072696365206d7573742062652067726561746572207468616e203000000000600082015250565b6000614154601c83612e63565b915061415f8261411e565b602082019050919050565b6000602082019050818103600083015261418381614147565b9050919050565b7f4552433732313a207472616e736665722066726f6d20696e636f72726563742060008201527f6f776e6572000000000000000000000000000000000000000000000000000000602082015250565b60006141e6602583612e63565b91506141f18261418a565b604082019050919050565b60006020820190508181036000830152614215816141d9565b9050919050565b7f4552433732313a207472616e7366657220746f20746865207a65726f2061646460008201527f7265737300000000000000000000000000000000000000000000000000000000602082015250565b6000614278602483612e63565b91506142838261421c565b604082019050919050565b600060208201905081810360008301526142a78161426b565b9050919050565b7f436f756e7465723a2064656372656d656e74206f766572666c6f770000000000600082015250565b60006142e4601b83612e63565b91506142ef826142ae565b602082019050919050565b60006020820190508181036000830152614313816142d7565b9050919050565b7f4552433732313a20617070726f766520746f2063616c6c657200000000000000600082015250565b6000614350601983612e63565b915061435b8261431a565b602082019050919050565b6000602082019050818103600083015261437f81614343565b9050919050565b7f4552433732313a207472616e7366657220746f206e6f6e20455243373231526560008201527f63656976657220696d706c656d656e7465720000000000000000000000000000602082015250565b60006143e2603283612e63565b91506143ed82614386565b604082019050919050565b60006020820190508181036000830152614411816143d5565b9050919050565b7f4552433732313a206d696e7420746f20746865207a65726f2061646472657373600082015250565b600061444e602083612e63565b915061445982614418565b602082019050919050565b6000602082019050818103600083015261447d81614441565b9050919050565b7f4552433732313a20746f6b656e20616c7265616479206d696e74656400000000600082015250565b60006144ba601c83612e63565b91506144c582614484565b602082019050919050565b600060208201905081810360008301526144e9816144ad565b9050919050565b7f45524337323155524953746f726167653a2055524920736574206f66206e6f6e60008201527f6578697374656e7420746f6b656e000000000000000000000000000000000000602082015250565b600061454c602e83612e63565b9150614557826144f0565b604082019050919050565b6000602082019050818103600083015261457b8161453f565b9050919050565b600081519050919050565b600082825260208201905092915050565b60006145a982614582565b6145b3818561458d565b93506145c3818560208601612e74565b6145cc81612e9e565b840191505092915050565b60006080820190506145ec6000830187612f9f565b6145f96020830186612f9f565b6146066040830185613035565b8181036060830152614618818461459e565b905095945050505050565b60008151905061463281612dc9565b92915050565b60006020828403121561464e5761464d612d93565b5b600061465c84828501614623565b91505092915050565b7f4e487b7100000000000000000000000000000000000000000000000000000000600052601260045260246000fdfea2646970667358221220ca1b272180b05eebe093b490d1b44debc35ab56820539fa4a82c5a5df89f12c364736f6c63430008120033",
  "devdoc": {
    "events": {
      "Approval(address,address,uint256)": {
        "details": "Emitted when `owner` enables `approved` to manage the `tokenId` token."
      },
      "ApprovalForAll(address,address,bool)": {
        "details": "Emitted when `owner` enables or disables (`approved`) `operator` to manage all of its assets."
      },
      "Transfer(address,address,uint256)": {
        "details": "Emitted when `tokenId` token is transferred from `from` to `to`."
      }
    },
    "kind": "dev",
    "methods": {
      "approve(address,uint256)": {
        "details": "See {IERC721-approve}."
      },
      "balanceOf(address)": {
        "details": "See {IERC721-balanceOf}."
      },
      "getApproved(uint256)": {
        "details": "See {IERC721-getApproved}."
      },
      "isApprovedForAll(address,address)": {
        "details": "See {IERC721-isApprovedForAll}."
      },
      "name()": {
        "details": "See {IERC721Metadata-name}."
      },
      "ownerOf(uint256)": {
        "details": "See {IERC721-ownerOf}."
      },
      "safeTransferFrom(address,address,uint256)": {
        "details": "See {IERC721-safeTransferFrom}."
      },
      "safeTransferFrom(address,address,uint256,bytes)": {
        "details": "See {IERC721-safeTransferFrom}."
      },
      "setApprovalForAll(address,bool)": {
        "details": "See {IERC721-setApprovalForAll}."
      },
      "supportsInterface(bytes4)": {
        "details": "See {IERC165-supportsInterface}."
      },
      "symbol()": {
        "details": "See {IERC721Metadata-symbol}."
      },
      "tokenURI(uint256)": {
        "details": "See {IERC721Metadata-tokenURI}."
      },
      "transferFrom(address,address,uint256)": {
        "details": "See {IERC721-transferFrom}."
      }
    },
    "version": 1
  },
  "userdoc": {
    "kind": "user",
    "methods": {},
    "version": 1
  },
  "storageLayout": {
    "storage": [
      {
        "astId": 25,
        "contract": "contracts/NftMarketplace.sol:NftMarketplace",
        "label": "_name",
        "offset": 0,
        "slot": "0",
        "type": "t_string_storage"
      },
      {
        "astId": 27,
        "contract": "contracts/NftMarketplace.sol:NftMarketplace",
        "label": "_symbol",
        "offset": 0,
        "slot": "1",
        "type": "t_string_storage"
      },
      {
        "astId": 31,
        "contract": "contracts/NftMarketplace.sol:NftMarketplace",
        "label": "_owners",
        "offset": 0,
        "slot": "2",
        "type": "t_mapping(t_uint256,t_address)"
      },
      {
        "astId": 35,
        "contract": "contracts/NftMarketplace.sol:NftMarketplace",
        "label": "_balances",
        "offset": 0,
        "slot": "3",
        "type": "t_mapping(t_address,t_uint256)"
      },
      {
        "astId": 39,
        "contract": "contracts/NftMarketplace.sol:NftMarketplace",
        "label": "_tokenApprovals",
        "offset": 0,
        "slot": "4",
        "type": "t_mapping(t_uint256,t_address)"
      },
      {
        "astId": 45,
        "contract": "contracts/NftMarketplace.sol:NftMarketplace",
        "label": "_operatorApprovals",
        "offset": 0,
        "slot": "5",
        "type": "t_mapping(t_address,t_mapping(t_address,t_bool))"
      },
      {
        "astId": 1073,
        "contract": "contracts/NftMarketplace.sol:NftMarketplace",
        "label": "_tokenURIs",
        "offset": 0,
        "slot": "6",
        "type": "t_mapping(t_uint256,t_string_storage)"
      },
      {
        "astId": 2728,
        "contract": "contracts/NftMarketplace.sol:NftMarketplace",
        "label": "_nftId",
        "offset": 0,
        "slot": "7",
        "type": "t_struct(Counter)1570_storage"
      },
      {
        "astId": 2731,
        "contract": "contracts/NftMarketplace.sol:NftMarketplace",
        "label": "_listedNfts",
        "offset": 0,
        "slot": "8",
        "type": "t_struct(Counter)1570_storage"
      },
      {
        "astId": 2747,
        "contract": "contracts/NftMarketplace.sol:NftMarketplace",
        "label": "mintedNfts",
        "offset": 0,
        "slot": "9",
        "type": "t_mapping(t_uint256,t_struct(Nft)2742_storage)"
      },
      {
        "astId": 2752,
        "contract": "contracts/NftMarketplace.sol:NftMarketplace",
        "label": "ownedNfts",
        "offset": 0,
        "slot": "10",
        "type": "t_mapping(t_address,t_array(t_uint256)dyn_storage)"
      }
    ],
    "types": {
      "t_address": {
        "encoding": "inplace",
        "label": "address",
        "numberOfBytes": "20"
      },
      "t_array(t_uint256)dyn_storage": {
        "base": "t_uint256",
        "encoding": "dynamic_array",
        "label": "uint256[]",
        "numberOfBytes": "32"
      },
      "t_bool": {
        "encoding": "inplace",
        "label": "bool",
        "numberOfBytes": "1"
      },
      "t_mapping(t_address,t_array(t_uint256)dyn_storage)": {
        "encoding": "mapping",
        "key": "t_address",
        "label": "mapping(address => uint256[])",
        "numberOfBytes": "32",
        "value": "t_array(t_uint256)dyn_storage"
      },
      "t_mapping(t_address,t_bool)": {
        "encoding": "mapping",
        "key": "t_address",
        "label": "mapping(address => bool)",
        "numberOfBytes": "32",
        "value": "t_bool"
      },
      "t_mapping(t_address,t_mapping(t_address,t_bool))": {
        "encoding": "mapping",
        "key": "t_address",
        "label": "mapping(address => mapping(address => bool))",
        "numberOfBytes": "32",
        "value": "t_mapping(t_address,t_bool)"
      },
      "t_mapping(t_address,t_uint256)": {
        "encoding": "mapping",
        "key": "t_address",
        "label": "mapping(address => uint256)",
        "numberOfBytes": "32",
        "value": "t_uint256"
      },
      "t_mapping(t_uint256,t_address)": {
        "encoding": "mapping",
        "key": "t_uint256",
        "label": "mapping(uint256 => address)",
        "numberOfBytes": "32",
        "value": "t_address"
      },
      "t_mapping(t_uint256,t_string_storage)": {
        "encoding": "mapping",
        "key": "t_uint256",
        "label": "mapping(uint256 => string)",
        "numberOfBytes": "32",
        "value": "t_string_storage"
      },
      "t_mapping(t_uint256,t_struct(Nft)2742_storage)": {
        "encoding": "mapping",
        "key": "t_uint256",
        "label": "mapping(uint256 => struct NftMarketplace.Nft)",
        "numberOfBytes": "32",
        "value": "t_struct(Nft)2742_storage"
      },
      "t_string_storage": {
        "encoding": "bytes",
        "label": "string",
        "numberOfBytes": "32"
      },
      "t_struct(Counter)1570_storage": {
        "encoding": "inplace",
        "label": "struct Counters.Counter",
        "members": [
          {
            "astId": 1569,
            "contract": "contracts/NftMarketplace.sol:NftMarketplace",
            "label": "_value",
            "offset": 0,
            "slot": "0",
            "type": "t_uint256"
          }
        ],
        "numberOfBytes": "32"
      },
      "t_struct(Nft)2742_storage": {
        "encoding": "inplace",
        "label": "struct NftMarketplace.Nft",
        "members": [
          {
            "astId": 2733,
            "contract": "contracts/NftMarketplace.sol:NftMarketplace",
            "label": "id",
            "offset": 0,
            "slot": "0",
            "type": "t_uint256"
          },
          {
            "astId": 2735,
            "contract": "contracts/NftMarketplace.sol:NftMarketplace",
            "label": "owner",
            "offset": 0,
            "slot": "1",
            "type": "t_address"
          },
          {
            "astId": 2737,
            "contract": "contracts/NftMarketplace.sol:NftMarketplace",
            "label": "uri",
            "offset": 0,
            "slot": "2",
            "type": "t_string_storage"
          },
          {
            "astId": 2739,
            "contract": "contracts/NftMarketplace.sol:NftMarketplace",
            "label": "isListed",
            "offset": 0,
            "slot": "3",
            "type": "t_bool"
          },
          {
            "astId": 2741,
            "contract": "contracts/NftMarketplace.sol:NftMarketplace",
            "label": "price",
            "offset": 0,
            "slot": "4",
            "type": "t_uint256"
          }
        ],
        "numberOfBytes": "160"
      },
      "t_uint256": {
        "encoding": "inplace",
        "label": "uint256",
        "numberOfBytes": "32"
      }
    }
  }
}