{
  "address": "0x434bb953Ea1693C99D04329B37CA04A47dAa5049",
  "abi": [
    {
      "inputs": [],
      "stateMutability": "nonpayable",
      "type": "constructor"
    },
    {
      "anonymous": false,
      "inputs": [
        {
          "indexed": true,
          "internalType": "address",
          "name": "owner",
          "type": "address"
        },
        {
          "indexed": true,
          "internalType": "address",
          "name": "approved",
          "type": "address"
        },
        {
          "indexed": true,
          "internalType": "uint256",
          "name": "tokenId",
          "type": "uint256"
        }
      ],
      "name": "Approval",
      "type": "event"
    },
    {
      "anonymous": false,
      "inputs": [
        {
          "indexed": true,
          "internalType": "address",
          "name": "owner",
          "type": "address"
        },
        {
          "indexed": true,
          "internalType": "address",
          "name": "operator",
          "type": "address"
        },
        {
          "indexed": false,
          "internalType": "bool",
          "name": "approved",
          "type": "bool"
        }
      ],
      "name": "ApprovalForAll",
      "type": "event"
    },
    {
      "anonymous": false,
      "inputs": [
        {
          "indexed": true,
          "internalType": "address",
          "name": "owner",
          "type": "address"
        },
        {
          "indexed": true,
          "internalType": "uint256",
          "name": "tokenId",
          "type": "uint256"
        },
        {
          "indexed": false,
          "internalType": "uint256",
          "name": "price",
          "type": "uint256"
        }
      ],
      "name": "NftBought",
      "type": "event"
    },
    {
      "anonymous": false,
      "inputs": [
        {
          "indexed": true,
          "internalType": "address",
          "name": "owner",
          "type": "address"
        },
        {
          "indexed": true,
          "internalType": "uint256",
          "name": "tokenId",
          "type": "uint256"
        },
        {
          "indexed": false,
          "internalType": "uint256",
          "name": "price",
          "type": "uint256"
        }
      ],
      "name": "NftDelisted",
      "type": "event"
    },
    {
      "anonymous": false,
      "inputs": [
        {
          "indexed": true,
          "internalType": "address",
          "name": "owner",
          "type": "address"
        },
        {
          "indexed": true,
          "internalType": "uint256",
          "name": "tokenId",
          "type": "uint256"
        },
        {
          "indexed": false,
          "internalType": "uint256",
          "name": "price",
          "type": "uint256"
        }
      ],
      "name": "NftListed",
      "type": "event"
    },
    {
      "anonymous": false,
      "inputs": [
        {
          "indexed": true,
          "internalType": "address",
          "name": "owner",
          "type": "address"
        },
        {
          "indexed": true,
          "internalType": "uint256",
          "name": "tokenId",
          "type": "uint256"
        }
      ],
      "name": "NftMinted",
      "type": "event"
    },
    {
      "anonymous": false,
      "inputs": [
        {
          "indexed": true,
          "internalType": "address",
          "name": "from",
          "type": "address"
        },
        {
          "indexed": true,
          "internalType": "address",
          "name": "to",
          "type": "address"
        },
        {
          "indexed": true,
          "internalType": "uint256",
          "name": "tokenId",
          "type": "uint256"
        }
      ],
      "name": "Transfer",
      "type": "event"
    },
    {
      "inputs": [],
      "name": "_listedNfts",
      "outputs": [
        {
          "internalType": "uint256",
          "name": "_value",
          "type": "uint256"
        }
      ],
      "stateMutability": "view",
      "type": "function"
    },
    {
      "inputs": [],
      "name": "_nftId",
      "outputs": [
        {
          "internalType": "uint256",
          "name": "_value",
          "type": "uint256"
        }
      ],
      "stateMutability": "view",
      "type": "function"
    },
    {
      "inputs": [
        {
          "internalType": "address",
          "name": "to",
          "type": "address"
        },
        {
          "internalType": "uint256",
          "name": "tokenId",
          "type": "uint256"
        }
      ],
      "name": "approve",
      "outputs": [],
      "stateMutability": "nonpayable",
      "type": "function"
    },
    {
      "inputs": [
        {
          "internalType": "address",
          "name": "owner",
          "type": "address"
        }
      ],
      "name": "balanceOf",
      "outputs": [
        {
          "internalType": "uint256",
          "name": "",
          "type": "uint256"
        }
      ],
      "stateMutability": "view",
      "type": "function"
    },
    {
      "inputs": [
        {
          "internalType": "uint256",
          "name": "nftId",
          "type": "uint256"
        }
      ],
      "name": "buyNft",
      "outputs": [],
      "stateMutability": "payable",
      "type": "function"
    },
    {
      "inputs": [
        {
          "internalType": "uint256",
          "name": "nftId",
          "type": "uint256"
        }
      ],
      "name": "cancelListing",
      "outputs": [],
      "stateMutability": "nonpayable",
      "type": "function"
    },
    {
      "inputs": [
        {
          "internalType": "uint256",
          "name": "tokenId",
          "type": "uint256"
        }
      ],
      "name": "getApproved",
      "outputs": [
        {
          "internalType": "address",
          "name": "",
          "type": "address"
        }
      ],
      "stateMutability": "view",
      "type": "function"
    },
    {
      "inputs": [],
      "name": "getListedNfts",
      "outputs": [
        {
          "components": [
            {
              "internalType": "uint256",
              "name": "id",
              "type": "uint256"
            },
            {
              "internalType": "address",
              "name": "owner",
              "type": "address"
            },
            {
              "internalType": "string",
              "name": "uri",
              "type": "string"
            },
            {
              "internalType": "bool",
              "name": "isListed",
              "type": "bool"
            },
            {
              "internalType": "uint256",
              "name": "price",
              "type": "uint256"
            }
          ],
          "internalType": "struct NftMarketplace.Nft[]",
          "name": "",
          "type": "tuple[]"
        }
      ],
      "stateMutability": "view",
      "type": "function"
    },
    {
      "inputs": [
        {
          "internalType": "uint256",
          "name": "tokenId",
          "type": "uint256"
        }
      ],
      "name": "getMintedNfts",
      "outputs": [
        {
          "components": [
            {
              "internalType": "uint256",
              "name": "id",
              "type": "uint256"
            },
            {
              "internalType": "address",
              "name": "owner",
              "type": "address"
            },
            {
              "internalType": "string",
              "name": "uri",
              "type": "string"
            },
            {
              "internalType": "bool",
              "name": "isListed",
              "type": "bool"
            },
            {
              "internalType": "uint256",
              "name": "price",
              "type": "uint256"
            }
          ],
          "internalType": "struct NftMarketplace.Nft",
          "name": "",
          "type": "tuple"
        }
      ],
      "stateMutability": "view",
      "type": "function"
    },
    {
      "inputs": [
        {
          "internalType": "address",
          "name": "owner",
          "type": "address"
        }
      ],
      "name": "getOwnedNfts",
      "outputs": [
        {
          "internalType": "uint256[]",
          "name": "",
          "type": "uint256[]"
        }
      ],
      "stateMutability": "view",
      "type": "function"
    },
    {
      "inputs": [
        {
          "internalType": "address",
          "name": "owner",
          "type": "address"
        },
        {
          "internalType": "address",
          "name": "operator",
          "type": "address"
        }
      ],
      "name": "isApprovedForAll",
      "outputs": [
        {
          "internalType": "bool",
          "name": "",
          "type": "bool"
        }
      ],
      "stateMutability": "view",
      "type": "function"
    },
    {
      "inputs": [
        {
          "internalType": "uint256",
          "name": "nftId",
          "type": "uint256"
        },
        {
          "internalType": "uint256",
          "name": "price",
          "type": "uint256"
        }
      ],
      "name": "listNft",
      "outputs": [],
      "stateMutability": "nonpayable",
      "type": "function"
    },
    {
      "inputs": [
        {
          "internalType": "string",
          "name": "tokenURI",
          "type": "string"
        }
      ],
      "name": "mint",
      "outputs": [],
      "stateMutability": "nonpayable",
      "type": "function"
    },
    {
      "inputs": [
        {
          "internalType": "uint256",
          "name": "",
          "type": "uint256"
        }
      ],
      "name": "mintedNfts",
      "outputs": [
        {
          "internalType": "uint256",
          "name": "id",
          "type": "uint256"
        },
        {
          "internalType": "address",
          "name": "owner",
          "type": "address"
        },
        {
          "internalType": "string",
          "name": "uri",
          "type": "string"
        },
        {
          "internalType": "bool",
          "name": "isListed",
          "type": "bool"
        },
        {
          "internalType": "uint256",
          "name": "price",
          "type": "uint256"
        }
      ],
      "stateMutability": "view",
      "type": "function"
    },
    {
      "inputs": [],
      "name": "name",
      "outputs": [
        {
          "internalType": "string",
          "name": "",
          "type": "string"
        }
      ],
      "stateMutability": "view",
      "type": "function"
    },
    {
      "inputs": [
        {
          "internalType": "address",
          "name": "",
          "type": "address"
        },
        {
          "internalType": "uint256",
          "name": "",
          "type": "uint256"
        }
      ],
      "name": "ownedNfts",
      "outputs": [
        {
          "internalType": "uint256",
          "name": "",
          "type": "uint256"
        }
      ],
      "stateMutability": "view",
      "type": "function"
    },
    {
      "inputs": [
        {
          "internalType": "uint256",
          "name": "tokenId",
          "type": "uint256"
        }
      ],
      "name": "ownerOf",
      "outputs": [
        {
          "internalType": "address",
          "name": "",
          "type": "address"
        }
      ],
      "stateMutability": "view",
      "type": "function"
    },
    {
      "inputs": [
        {
          "internalType": "address",
          "name": "from",
          "type": "address"
        },
        {
          "internalType": "address",
          "name": "to",
          "type": "address"
        },
        {
          "internalType": "uint256",
          "name": "tokenId",
          "type": "uint256"
        }
      ],
      "name": "safeTransferFrom",
      "outputs": [],
      "stateMutability": "nonpayable",
      "type": "function"
    },
    {
      "inputs": [
        {
          "internalType": "address",
          "name": "from",
          "type": "address"
        },
        {
          "internalType": "address",
          "name": "to",
          "type": "address"
        },
        {
          "internalType": "uint256",
          "name": "tokenId",
          "type": "uint256"
        },
        {
          "internalType": "bytes",
          "name": "data",
          "type": "bytes"
        }
      ],
      "name": "safeTransferFrom",
      "outputs": [],
      "stateMutability": "nonpayable",
      "type": "function"
    },
    {
      "inputs": [
        {
          "internalType": "address",
          "name": "operator",
          "type": "address"
        },
        {
          "internalType": "bool",
          "name": "approved",
          "type": "bool"
        }
      ],
      "name": "setApprovalForAll",
      "outputs": [],
      "stateMutability": "nonpayable",
      "type": "function"
    },
    {
      "inputs": [
        {
          "internalType": "bytes4",
          "name": "interfaceId",
          "type": "bytes4"
        }
      ],
      "name": "supportsInterface",
      "outputs": [
        {
          "internalType": "bool",
          "name": "",
          "type": "bool"
        }
      ],
      "stateMutability": "view",
      "type": "function"
    },
    {
      "inputs": [],
      "name": "symbol",
      "outputs": [
        {
          "internalType": "string",
          "name": "",
          "type": "string"
        }
      ],
      "stateMutability": "view",
      "type": "function"
    },
    {
      "inputs": [
        {
          "internalType": "uint256",
          "name": "tokenId",
          "type": "uint256"
        }
      ],
      "name": "tokenURI",
      "outputs": [
        {
          "internalType": "string",
          "name": "",
          "type": "string"
        }
      ],
      "stateMutability": "view",
      "type": "function"
    },
    {
      "inputs": [
        {
          "internalType": "address",
          "name": "from",
          "type": "address"
        },
        {
          "internalType": "address",
          "name": "to",
          "type": "address"
        },
        {
          "internalType": "uint256",
          "name": "tokenId",
          "type": "uint256"
        }
      ],
      "name": "transferFrom",
      "outputs": [],
      "stateMutability": "nonpayable",
      "type": "function"
    }
  ],
  "transactionHash": "0x23a780f550ad86ee32b75a772fc3ce99aac4177f21f23ca0cae0affffaa4334d",
  "args": [],
  "numDeployments": 7,
  "solcInputHash": "930123c68de6b286715bf85b1d62205d",
  "bytecode": "0x60806040523480156200001157600080fd5b506040518060400160405280600781526020017f4d79546f6b656e000000000000000000000000000000000000000000000000008152506040518060400160405280600381526020017f4d544b000000000000000000000000000000000000000000000000000000000081525081600090816200008f919062000324565b508060019081620000a1919062000324565b5050506200040b565b600081519050919050565b7f4e487b7100000000000000000000000000000000000000000000000000000000600052604160045260246000fd5b7f4e487b7100000000000000000000000000000000000000000000000000000000600052602260045260246000fd5b600060028204905060018216806200012c57607f821691505b602082108103620001425762000141620000e4565b5b50919050565b60008190508160005260206000209050919050565b60006020601f8301049050919050565b600082821b905092915050565b600060088302620001ac7fffffffffffffffffffffffffffffffffffffffffffffffffffffffffffffffff826200016d565b620001b886836200016d565b95508019841693508086168417925050509392505050565b6000819050919050565b6000819050919050565b600062000205620001ff620001f984620001d0565b620001da565b620001d0565b9050919050565b6000819050919050565b6200022183620001e4565b6200023962000230826200020c565b8484546200017a565b825550505050565b600090565b6200025062000241565b6200025d81848462000216565b505050565b5b8181101562000285576200027960008262000246565b60018101905062000263565b5050565b601f821115620002d4576200029e8162000148565b620002a9846200015d565b81016020851015620002b9578190505b620002d1620002c8856200015d565b83018262000262565b50505b505050565b600082821c905092915050565b6000620002f960001984600802620002d9565b1980831691505092915050565b6000620003148383620002e6565b9150826002028217905092915050565b6200032f82620000aa565b67ffffffffffffffff8111156200034b576200034a620000b5565b5b62000357825462000113565b6200036482828562000289565b600060209050601f8311600181146200039c576000841562000387578287015190505b62000393858262000306565b86555062000403565b601f198416620003ac8662000148565b60005b82811015620003d657848901518255600182019150602085019450602081019050620003af565b86831015620003f65784890151620003f2601f891682620002e6565b8355505b6001600288020188555050505b505050505050565b614b30806200041b6000396000f3fe60806040526004361061014b5760003560e01c80636352211e116100b6578063c7adece01161006f578063c7adece0146104a7578063c87b56dd146104e4578063d85d3d2714610521578063e985e9c51461054a578063f761561314610587578063fe8723e1146105c85761014b565b80636352211e1461038557806370a08231146103c25780638d6cb3fb146103ff57806395d89b411461042a578063a22cb46514610455578063b88d4fde1461047e5761014b565b8063243adbdd11610108578063243adbdd14610272578063305a67a81461028e5780633d9a3479146102b75780633efbf91c146102f457806342842e0e1461031f578063491dc25a146103485761014b565b806301ffc9a71461015057806306fdde031461018d578063081812fc146101b8578063095ea7b3146101f557806313d43fb11461021e57806323b872dd14610249575b600080fd5b34801561015c57600080fd5b5061017760048036038101906101729190613199565b6105f1565b60405161018491906131e1565b60405180910390f35b34801561019957600080fd5b506101a26106d3565b6040516101af919061328c565b60405180910390f35b3480156101c457600080fd5b506101df60048036038101906101da91906132e4565b610765565b6040516101ec9190613352565b60405180910390f35b34801561020157600080fd5b5061021c60048036038101906102179190613399565b6107ab565b005b34801561022a57600080fd5b506102336108c2565b60405161024091906133e8565b60405180910390f35b34801561025557600080fd5b50610270600480360381019061026b9190613403565b6108ce565b005b61028c600480360381019061028791906132e4565b61092e565b005b34801561029a57600080fd5b506102b560048036038101906102b091906132e4565b6110a7565b005b3480156102c357600080fd5b506102de60048036038101906102d99190613399565b6113c3565b6040516102eb91906133e8565b60405180910390f35b34801561030057600080fd5b506103096113f4565b60405161031691906133e8565b60405180910390f35b34801561032b57600080fd5b5061034660048036038101906103419190613403565b611400565b005b34801561035457600080fd5b5061036f600480360381019061036a91906132e4565b611420565b60405161037c9190613543565b60405180910390f35b34801561039157600080fd5b506103ac60048036038101906103a791906132e4565b611564565b6040516103b99190613352565b60405180910390f35b3480156103ce57600080fd5b506103e960048036038101906103e49190613565565b6115ea565b6040516103f691906133e8565b60405180910390f35b34801561040b57600080fd5b506104146116a1565b60405161042191906136ca565b60405180910390f35b34801561043657600080fd5b5061043f6118c9565b60405161044c919061328c565b60405180910390f35b34801561046157600080fd5b5061047c60048036038101906104779190613718565b61195b565b005b34801561048a57600080fd5b506104a560048036038101906104a0919061388d565b611971565b005b3480156104b357600080fd5b506104ce60048036038101906104c99190613565565b6119d3565b6040516104db91906139bf565b60405180910390f35b3480156104f057600080fd5b5061050b600480360381019061050691906132e4565b611a6a565b604051610518919061328c565b60405180910390f35b34801561052d57600080fd5b5061054860048036038101906105439190613a82565b611b7c565b005b34801561055657600080fd5b50610571600480360381019061056c9190613acb565b611d44565b60405161057e91906131e1565b60405180910390f35b34801561059357600080fd5b506105ae60048036038101906105a991906132e4565b611dd8565b6040516105bf959493929190613b0b565b60405180910390f35b3480156105d457600080fd5b506105ef60048036038101906105ea9190613b65565b611ec3565b005b60007f80ac58cd000000000000000000000000000000000000000000000000000000007bffffffffffffffffffffffffffffffffffffffffffffffffffffffff1916827bffffffffffffffffffffffffffffffffffffffffffffffffffffffff191614806106bc57507f5b5e139f000000000000000000000000000000000000000000000000000000007bffffffffffffffffffffffffffffffffffffffffffffffffffffffff1916827bffffffffffffffffffffffffffffffffffffffffffffffffffffffff1916145b806106cc57506106cb826121d2565b5b9050919050565b6060600080546106e290613bd4565b80601f016020809104026020016040519081016040528092919081815260200182805461070e90613bd4565b801561075b5780601f106107305761010080835404028352916020019161075b565b820191906000526020600020905b81548152906001019060200180831161073e57829003601f168201915b5050505050905090565b60006107708261223c565b6004600083815260200190815260200160002060009054906101000a900473ffffffffffffffffffffffffffffffffffffffff169050919050565b60006107b682611564565b90508073ffffffffffffffffffffffffffffffffffffffff168373ffffffffffffffffffffffffffffffffffffffff1603610826576040517f08c379a000000000000000000000000000000000000000000000000000000000815260040161081d90613c77565b60405180910390fd5b8073ffffffffffffffffffffffffffffffffffffffff16610845612287565b73ffffffffffffffffffffffffffffffffffffffff16148061087457506108738161086e612287565b611d44565b5b6108b3576040517f08c379a00000000000000000000000000000000000000000000000000000000081526004016108aa90613d09565b60405180910390fd5b6108bd838361228f565b505050565b60088060000154905081565b6108df6108d9612287565b82612348565b61091e576040517f08c379a000000000000000000000000000000000000000000000000000000000815260040161091590613d9b565b60405180910390fd5b6109298383836123dd565b505050565b6000600960008381526020019081526020016000206040518060a0016040529081600082015481526020016001820160009054906101000a900473ffffffffffffffffffffffffffffffffffffffff1673ffffffffffffffffffffffffffffffffffffffff1673ffffffffffffffffffffffffffffffffffffffff1681526020016002820180546109be90613bd4565b80601f01602080910402602001604051908101604052809291908181526020018280546109ea90613bd4565b8015610a375780601f10610a0c57610100808354040283529160200191610a37565b820191906000526020600020905b815481529060010190602001808311610a1a57829003601f168201915b505050505081526020016003820160009054906101000a900460ff16151515158152602001600482015481525050905060008160200151905060003390503373ffffffffffffffffffffffffffffffffffffffff16836020015173ffffffffffffffffffffffffffffffffffffffff1603610ae7576040517f08c379a0000000000000000000000000000000000000000000000000000000008152600401610ade90613e07565b60405180910390fd5b600115158360600151151514610b32576040517f08c379a0000000000000000000000000000000000000000000000000000000008152600401610b2990613e99565b60405180910390fd5b34836080015114610b78576040517f08c379a0000000000000000000000000000000000000000000000000000000008152600401610b6f90613f2b565b60405180910390fd5b600083606001901515908115158152505080836020019073ffffffffffffffffffffffffffffffffffffffff16908173ffffffffffffffffffffffffffffffffffffffff1681525050600083608001818152505082600960008681526020019081526020016000206000820151816000015560208201518160010160006101000a81548173ffffffffffffffffffffffffffffffffffffffff021916908373ffffffffffffffffffffffffffffffffffffffff1602179055506040820151816002019081610c4691906140f7565b5060608201518160030160006101000a81548160ff021916908315150217905550608082015181600401559050506001600a60008473ffffffffffffffffffffffffffffffffffffffff1673ffffffffffffffffffffffffffffffffffffffff1681526020019081526020016000208054905003610d6057600067ffffffffffffffff811115610cd957610cd8613762565b5b604051908082528060200260200182016040528015610d075781602001602082028036833780820191505090505b50600a60008473ffffffffffffffffffffffffffffffffffffffff1673ffffffffffffffffffffffffffffffffffffffff1681526020019081526020016000209080519060200190610d5a92919061307c565b50610f97565b60005b600a60008473ffffffffffffffffffffffffffffffffffffffff1673ffffffffffffffffffffffffffffffffffffffff16815260200190815260200160002080549050811015610f955784600a60008573ffffffffffffffffffffffffffffffffffffffff1673ffffffffffffffffffffffffffffffffffffffff1681526020019081526020016000208281548110610dff57610dfe6141c9565b5b906000526020600020015403610f8257600a60008473ffffffffffffffffffffffffffffffffffffffff1673ffffffffffffffffffffffffffffffffffffffff1681526020019081526020016000206001600a60008673ffffffffffffffffffffffffffffffffffffffff1673ffffffffffffffffffffffffffffffffffffffff16815260200190815260200160002080549050610e9d9190614227565b81548110610eae57610ead6141c9565b5b9060005260206000200154600a60008573ffffffffffffffffffffffffffffffffffffffff1673ffffffffffffffffffffffffffffffffffffffff1681526020019081526020016000208281548110610f0a57610f096141c9565b5b9060005260206000200181905550600a60008473ffffffffffffffffffffffffffffffffffffffff1673ffffffffffffffffffffffffffffffffffffffff168152602001908152602001600020805480610f6757610f6661425b565b5b60019003818190600052602060002001600090559055610f95565b8080610f8d9061428a565b915050610d63565b505b600a60008273ffffffffffffffffffffffffffffffffffffffff1673ffffffffffffffffffffffffffffffffffffffff1681526020019081526020016000208490806001815401808255809150506001900390600052602060002001600090919091909150558173ffffffffffffffffffffffffffffffffffffffff166108fc349081150290604051600060405180830381858888f19350505050158015611043573d6000803e3d6000fd5b5061104e60086126d6565b838173ffffffffffffffffffffffffffffffffffffffff167f6cde4ed53ecc43e1126a8b2b9e8ad2f4ec18d9f7834636ed981cfa61960be370856080015160405161109991906133e8565b60405180910390a350505050565b6000600960008381526020019081526020016000206040518060a0016040529081600082015481526020016001820160009054906101000a900473ffffffffffffffffffffffffffffffffffffffff1673ffffffffffffffffffffffffffffffffffffffff1673ffffffffffffffffffffffffffffffffffffffff16815260200160028201805461113790613bd4565b80601f016020809104026020016040519081016040528092919081815260200182805461116390613bd4565b80156111b05780601f10611185576101008083540402835291602001916111b0565b820191906000526020600020905b81548152906001019060200180831161119357829003601f168201915b505050505081526020016003820160009054906101000a900460ff1615151515815260200160048201548152505090503373ffffffffffffffffffffffffffffffffffffffff16816020015173ffffffffffffffffffffffffffffffffffffffff1614611252576040517f08c379a000000000000000000000000000000000000000000000000000000000815260040161124990614344565b60405180910390fd5b60011515816060015115151461129d576040517f08c379a0000000000000000000000000000000000000000000000000000000008152600401611294906143b0565b60405180910390fd5b6000816060019015159081151581525050600081608001818152505080600960008481526020019081526020016000206000820151816000015560208201518160010160006101000a81548173ffffffffffffffffffffffffffffffffffffffff021916908373ffffffffffffffffffffffffffffffffffffffff160217905550604082015181600201908161133391906140f7565b5060608201518160030160006101000a81548160ff0219169083151502179055506080820151816004015590505061136b60086126d6565b81816020015173ffffffffffffffffffffffffffffffffffffffff167f2f1741a799f4ec1116a0a7db936e879038263ed746e74cfc26686f196c91673560006040516113b7919061440b565b60405180910390a35050565b600a60205281600052604060002081815481106113df57600080fd5b90600052602060002001600091509150505481565b60078060000154905081565b61141b83838360405180602001604052806000815250611971565b505050565b6114286130c9565b600960008381526020019081526020016000206040518060a0016040529081600082015481526020016001820160009054906101000a900473ffffffffffffffffffffffffffffffffffffffff1673ffffffffffffffffffffffffffffffffffffffff1673ffffffffffffffffffffffffffffffffffffffff1681526020016002820180546114b690613bd4565b80601f01602080910402602001604051908101604052809291908181526020018280546114e290613bd4565b801561152f5780601f106115045761010080835404028352916020019161152f565b820191906000526020600020905b81548152906001019060200180831161151257829003601f168201915b505050505081526020016003820160009054906101000a900460ff161515151581526020016004820154815250509050919050565b60008061157083612732565b9050600073ffffffffffffffffffffffffffffffffffffffff168173ffffffffffffffffffffffffffffffffffffffff16036115e1576040517f08c379a00000000000000000000000000000000000000000000000000000000081526004016115d890614472565b60405180910390fd5b80915050919050565b60008073ffffffffffffffffffffffffffffffffffffffff168273ffffffffffffffffffffffffffffffffffffffff160361165a576040517f08c379a000000000000000000000000000000000000000000000000000000000815260040161165190614504565b60405180910390fd5b600360008373ffffffffffffffffffffffffffffffffffffffff1673ffffffffffffffffffffffffffffffffffffffff168152602001908152602001600020549050919050565b606060006116af600861276f565b67ffffffffffffffff8111156116c8576116c7613762565b5b60405190808252806020026020018201604052801561170157816020015b6116ee6130c9565b8152602001906001900390816116e65790505b509050600080600190505b611716600761276f565b81116118c057600115156009600083815260200190815260200160002060030160009054906101000a900460ff161515036118ad57600960008281526020019081526020016000206040518060a0016040529081600082015481526020016001820160009054906101000a900473ffffffffffffffffffffffffffffffffffffffff1673ffffffffffffffffffffffffffffffffffffffff1673ffffffffffffffffffffffffffffffffffffffff1681526020016002820180546117d990613bd4565b80601f016020809104026020016040519081016040528092919081815260200182805461180590613bd4565b80156118525780601f1061182757610100808354040283529160200191611852565b820191906000526020600020905b81548152906001019060200180831161183557829003601f168201915b505050505081526020016003820160009054906101000a900460ff16151515158152602001600482015481525050838381518110611893576118926141c9565b5b602002602001018190525081806118a99061428a565b9250505b80806118b89061428a565b91505061170c565b50819250505090565b6060600180546118d890613bd4565b80601f016020809104026020016040519081016040528092919081815260200182805461190490613bd4565b80156119515780601f1061192657610100808354040283529160200191611951565b820191906000526020600020905b81548152906001019060200180831161193457829003601f168201915b5050505050905090565b61196d611966612287565b838361277d565b5050565b61198261197c612287565b83612348565b6119c1576040517f08c379a00000000000000000000000000000000000000000000000000000000081526004016119b890613d9b565b60405180910390fd5b6119cd848484846128e9565b50505050565b6060600a60008373ffffffffffffffffffffffffffffffffffffffff1673ffffffffffffffffffffffffffffffffffffffff168152602001908152602001600020805480602002602001604051908101604052809291908181526020018280548015611a5e57602002820191906000526020600020905b815481526020019060010190808311611a4a575b50505050509050919050565b6060611a758261223c565b6000600660008481526020019081526020016000208054611a9590613bd4565b80601f0160208091040260200160405190810160405280929190818152602001828054611ac190613bd4565b8015611b0e5780601f10611ae357610100808354040283529160200191611b0e565b820191906000526020600020905b815481529060010190602001808311611af157829003601f168201915b505050505090506000611b1f612945565b90506000815103611b34578192505050611b77565b600082511115611b69578082604051602001611b51929190614560565b60405160208183030381529060405292505050611b77565b611b728461295c565b925050505b919050565b611b8660076129c4565b6000611b92600761276f565b9050611b9e33826129da565b611ba88183612bf7565b60006040518060a001604052808381526020013373ffffffffffffffffffffffffffffffffffffffff1681526020018481526020016000151581526020016000815250905080600960008481526020019081526020016000206000820151816000015560208201518160010160006101000a81548173ffffffffffffffffffffffffffffffffffffffff021916908373ffffffffffffffffffffffffffffffffffffffff1602179055506040820151816002019081611c6791906140f7565b5060608201518160030160006101000a81548160ff02191690831515021790555060808201518160040155905050600a60003373ffffffffffffffffffffffffffffffffffffffff1673ffffffffffffffffffffffffffffffffffffffff168152602001908152602001600020829080600181540180825580915050600190039060005260206000200160009091909190915055813373ffffffffffffffffffffffffffffffffffffffff167ff2b290a76feb54be358b555507421d765609171aefa0646f109a653228ff81b860405160405180910390a3505050565b6000600560008473ffffffffffffffffffffffffffffffffffffffff1673ffffffffffffffffffffffffffffffffffffffff16815260200190815260200160002060008373ffffffffffffffffffffffffffffffffffffffff1673ffffffffffffffffffffffffffffffffffffffff16815260200190815260200160002060009054906101000a900460ff16905092915050565b60096020528060005260406000206000915090508060000154908060010160009054906101000a900473ffffffffffffffffffffffffffffffffffffffff1690806002018054611e2790613bd4565b80601f0160208091040260200160405190810160405280929190818152602001828054611e5390613bd4565b8015611ea05780601f10611e7557610100808354040283529160200191611ea0565b820191906000526020600020905b815481529060010190602001808311611e8357829003601f168201915b5050505050908060030160009054906101000a900460ff16908060040154905085565b6000600960008481526020019081526020016000206040518060a0016040529081600082015481526020016001820160009054906101000a900473ffffffffffffffffffffffffffffffffffffffff1673ffffffffffffffffffffffffffffffffffffffff1673ffffffffffffffffffffffffffffffffffffffff168152602001600282018054611f5390613bd4565b80601f0160208091040260200160405190810160405280929190818152602001828054611f7f90613bd4565b8015611fcc5780601f10611fa157610100808354040283529160200191611fcc565b820191906000526020600020905b815481529060010190602001808311611faf57829003601f168201915b505050505081526020016003820160009054906101000a900460ff1615151515815260200160048201548152505090503373ffffffffffffffffffffffffffffffffffffffff16816020015173ffffffffffffffffffffffffffffffffffffffff161461206e576040517f08c379a000000000000000000000000000000000000000000000000000000000815260040161206590614344565b60405180910390fd5b600082116120b1576040517f08c379a00000000000000000000000000000000000000000000000000000000081526004016120a8906145d0565b60405180910390fd5b60018160600190151590811515815250508181608001818152505080600960008581526020019081526020016000206000820151816000015560208201518160010160006101000a81548173ffffffffffffffffffffffffffffffffffffffff021916908373ffffffffffffffffffffffffffffffffffffffff160217905550604082015181600201908161214691906140f7565b5060608201518160030160006101000a81548160ff0219169083151502179055506080820151816004015590505061217e60086129c4565b823373ffffffffffffffffffffffffffffffffffffffff167f8cb0963b04034c4c13b179fd8bc2a3e07a88cd6b5dd0f6bee0db0bfa04d41441846040516121c591906133e8565b60405180910390a3505050565b60007f01ffc9a7000000000000000000000000000000000000000000000000000000007bffffffffffffffffffffffffffffffffffffffffffffffffffffffff1916827bffffffffffffffffffffffffffffffffffffffffffffffffffffffff1916149050919050565b61224581612c64565b612284576040517f08c379a000000000000000000000000000000000000000000000000000000000815260040161227b90614472565b60405180910390fd5b50565b600033905090565b816004600083815260200190815260200160002060006101000a81548173ffffffffffffffffffffffffffffffffffffffff021916908373ffffffffffffffffffffffffffffffffffffffff160217905550808273ffffffffffffffffffffffffffffffffffffffff1661230283611564565b73ffffffffffffffffffffffffffffffffffffffff167f8c5be1e5ebec7d5bd14f71427d1e84f3dd0314c0f7b2291e5b200ac8c7c3b92560405160405180910390a45050565b60008061235483611564565b90508073ffffffffffffffffffffffffffffffffffffffff168473ffffffffffffffffffffffffffffffffffffffff16148061239657506123958185611d44565b5b806123d457508373ffffffffffffffffffffffffffffffffffffffff166123bc84610765565b73ffffffffffffffffffffffffffffffffffffffff16145b91505092915050565b8273ffffffffffffffffffffffffffffffffffffffff166123fd82611564565b73ffffffffffffffffffffffffffffffffffffffff1614612453576040517f08c379a000000000000000000000000000000000000000000000000000000000815260040161244a90614662565b60405180910390fd5b600073ffffffffffffffffffffffffffffffffffffffff168273ffffffffffffffffffffffffffffffffffffffff16036124c2576040517f08c379a00000000000000000000000000000000000000000000000000000000081526004016124b9906146f4565b60405180910390fd5b6124cf8383836001612ca5565b8273ffffffffffffffffffffffffffffffffffffffff166124ef82611564565b73ffffffffffffffffffffffffffffffffffffffff1614612545576040517f08c379a000000000000000000000000000000000000000000000000000000000815260040161253c90614662565b60405180910390fd5b6004600082815260200190815260200160002060006101000a81549073ffffffffffffffffffffffffffffffffffffffff02191690556001600360008573ffffffffffffffffffffffffffffffffffffffff1673ffffffffffffffffffffffffffffffffffffffff168152602001908152602001600020600082825403925050819055506001600360008473ffffffffffffffffffffffffffffffffffffffff1673ffffffffffffffffffffffffffffffffffffffff16815260200190815260200160002060008282540192505081905550816002600083815260200190815260200160002060006101000a81548173ffffffffffffffffffffffffffffffffffffffff021916908373ffffffffffffffffffffffffffffffffffffffff160217905550808273ffffffffffffffffffffffffffffffffffffffff168473ffffffffffffffffffffffffffffffffffffffff167fddf252ad1be2c89b69c2b068fc378daa952ba7f163c4a11628f55a4df523b3ef60405160405180910390a46126d18383836001612cab565b505050565b60008160000154905060008111612722576040517f08c379a000000000000000000000000000000000000000000000000000000000815260040161271990614760565b60405180910390fd5b6001810382600001819055505050565b60006002600083815260200190815260200160002060009054906101000a900473ffffffffffffffffffffffffffffffffffffffff169050919050565b600081600001549050919050565b8173ffffffffffffffffffffffffffffffffffffffff168373ffffffffffffffffffffffffffffffffffffffff16036127eb576040517f08c379a00000000000000000000000000000000000000000000000000000000081526004016127e2906147cc565b60405180910390fd5b80600560008573ffffffffffffffffffffffffffffffffffffffff1673ffffffffffffffffffffffffffffffffffffffff16815260200190815260200160002060008473ffffffffffffffffffffffffffffffffffffffff1673ffffffffffffffffffffffffffffffffffffffff16815260200190815260200160002060006101000a81548160ff0219169083151502179055508173ffffffffffffffffffffffffffffffffffffffff168373ffffffffffffffffffffffffffffffffffffffff167f17307eab39ab6107e8899845ad3d59bd9653f200f220920489ca2b5937696c31836040516128dc91906131e1565b60405180910390a3505050565b6128f48484846123dd565b61290084848484612cb1565b61293f576040517f08c379a00000000000000000000000000000000000000000000000000000000081526004016129369061485e565b60405180910390fd5b50505050565b606060405180602001604052806000815250905090565b60606129678261223c565b6000612971612945565b9050600081511161299157604051806020016040528060008152506129bc565b8061299b84612e38565b6040516020016129ac929190614560565b6040516020818303038152906040525b915050919050565b6001816000016000828254019250508190555050565b600073ffffffffffffffffffffffffffffffffffffffff168273ffffffffffffffffffffffffffffffffffffffff1603612a49576040517f08c379a0000000000000000000000000000000000000000000000000000000008152600401612a40906148ca565b60405180910390fd5b612a5281612c64565b15612a92576040517f08c379a0000000000000000000000000000000000000000000000000000000008152600401612a8990614936565b60405180910390fd5b612aa0600083836001612ca5565b612aa981612c64565b15612ae9576040517f08c379a0000000000000000000000000000000000000000000000000000000008152600401612ae090614936565b60405180910390fd5b6001600360008473ffffffffffffffffffffffffffffffffffffffff1673ffffffffffffffffffffffffffffffffffffffff16815260200190815260200160002060008282540192505081905550816002600083815260200190815260200160002060006101000a81548173ffffffffffffffffffffffffffffffffffffffff021916908373ffffffffffffffffffffffffffffffffffffffff160217905550808273ffffffffffffffffffffffffffffffffffffffff16600073ffffffffffffffffffffffffffffffffffffffff167fddf252ad1be2c89b69c2b068fc378daa952ba7f163c4a11628f55a4df523b3ef60405160405180910390a4612bf3600083836001612cab565b5050565b612c0082612c64565b612c3f576040517f08c379a0000000000000000000000000000000000000000000000000000000008152600401612c36906149c8565b60405180910390fd5b80600660008481526020019081526020016000209081612c5f91906140f7565b505050565b60008073ffffffffffffffffffffffffffffffffffffffff16612c8683612732565b73ffffffffffffffffffffffffffffffffffffffff1614159050919050565b50505050565b50505050565b6000612cd28473ffffffffffffffffffffffffffffffffffffffff16612f06565b15612e2b578373ffffffffffffffffffffffffffffffffffffffff1663150b7a02612cfb612287565b8786866040518563ffffffff1660e01b8152600401612d1d9493929190614a3d565b6020604051808303816000875af1925050508015612d5957506040513d601f19601f82011682018060405250810190612d569190614a9e565b60015b612ddb573d8060008114612d89576040519150601f19603f3d011682016040523d82523d6000602084013e612d8e565b606091505b506000815103612dd3576040517f08c379a0000000000000000000000000000000000000000000000000000000008152600401612dca9061485e565b60405180910390fd5b805181602001fd5b63150b7a0260e01b7bffffffffffffffffffffffffffffffffffffffffffffffffffffffff1916817bffffffffffffffffffffffffffffffffffffffffffffffffffffffff191614915050612e30565b600190505b949350505050565b606060006001612e4784612f29565b01905060008167ffffffffffffffff811115612e6657612e65613762565b5b6040519080825280601f01601f191660200182016040528015612e985781602001600182028036833780820191505090505b509050600082602001820190505b600115612efb578080600190039150507f3031323334353637383961626364656600000000000000000000000000000000600a86061a8153600a8581612eef57612eee614acb565b5b04945060008503612ea6575b819350505050919050565b6000808273ffffffffffffffffffffffffffffffffffffffff163b119050919050565b600080600090507a184f03e93ff9f4daa797ed6e38ed64bf6a1f0100000000000000008310612f87577a184f03e93ff9f4daa797ed6e38ed64bf6a1f0100000000000000008381612f7d57612f7c614acb565b5b0492506040810190505b6d04ee2d6d415b85acef81000000008310612fc4576d04ee2d6d415b85acef81000000008381612fba57612fb9614acb565b5b0492506020810190505b662386f26fc100008310612ff357662386f26fc100008381612fe957612fe8614acb565b5b0492506010810190505b6305f5e100831061301c576305f5e100838161301257613011614acb565b5b0492506008810190505b612710831061304157612710838161303757613036614acb565b5b0492506004810190505b60648310613064576064838161305a57613059614acb565b5b0492506002810190505b600a8310613073576001810190505b80915050919050565b8280548282559060005260206000209081019282156130b8579160200282015b828111156130b757825182559160200191906001019061309c565b5b5090506130c59190613110565b5090565b6040518060a0016040528060008152602001600073ffffffffffffffffffffffffffffffffffffffff16815260200160608152602001600015158152602001600081525090565b5b80821115613129576000816000905550600101613111565b5090565b6000604051905090565b600080fd5b600080fd5b60007fffffffff0000000000000000000000000000000000000000000000000000000082169050919050565b61317681613141565b811461318157600080fd5b50565b6000813590506131938161316d565b92915050565b6000602082840312156131af576131ae613137565b5b60006131bd84828501613184565b91505092915050565b60008115159050919050565b6131db816131c6565b82525050565b60006020820190506131f660008301846131d2565b92915050565b600081519050919050565b600082825260208201905092915050565b60005b8381101561323657808201518184015260208101905061321b565b60008484015250505050565b6000601f19601f8301169050919050565b600061325e826131fc565b6132688185613207565b9350613278818560208601613218565b61328181613242565b840191505092915050565b600060208201905081810360008301526132a68184613253565b905092915050565b6000819050919050565b6132c1816132ae565b81146132cc57600080fd5b50565b6000813590506132de816132b8565b92915050565b6000602082840312156132fa576132f9613137565b5b6000613308848285016132cf565b91505092915050565b600073ffffffffffffffffffffffffffffffffffffffff82169050919050565b600061333c82613311565b9050919050565b61334c81613331565b82525050565b60006020820190506133676000830184613343565b92915050565b61337681613331565b811461338157600080fd5b50565b6000813590506133938161336d565b92915050565b600080604083850312156133b0576133af613137565b5b60006133be85828601613384565b92505060206133cf858286016132cf565b9150509250929050565b6133e2816132ae565b82525050565b60006020820190506133fd60008301846133d9565b92915050565b60008060006060848603121561341c5761341b613137565b5b600061342a86828701613384565b935050602061343b86828701613384565b925050604061344c868287016132cf565b9150509250925092565b61345f816132ae565b82525050565b61346e81613331565b82525050565b600082825260208201905092915050565b6000613490826131fc565b61349a8185613474565b93506134aa818560208601613218565b6134b381613242565b840191505092915050565b6134c7816131c6565b82525050565b600060a0830160008301516134e56000860182613456565b5060208301516134f86020860182613465565b50604083015184820360408601526135108282613485565b915050606083015161352560608601826134be565b5060808301516135386080860182613456565b508091505092915050565b6000602082019050818103600083015261355d81846134cd565b905092915050565b60006020828403121561357b5761357a613137565b5b600061358984828501613384565b91505092915050565b600081519050919050565b600082825260208201905092915050565b6000819050602082019050919050565b600060a0830160008301516135d66000860182613456565b5060208301516135e96020860182613465565b50604083015184820360408601526136018282613485565b915050606083015161361660608601826134be565b5060808301516136296080860182613456565b508091505092915050565b600061364083836135be565b905092915050565b6000602082019050919050565b600061366082613592565b61366a818561359d565b93508360208202850161367c856135ae565b8060005b858110156136b857848403895281516136998582613634565b94506136a483613648565b925060208a01995050600181019050613680565b50829750879550505050505092915050565b600060208201905081810360008301526136e48184613655565b905092915050565b6136f5816131c6565b811461370057600080fd5b50565b600081359050613712816136ec565b92915050565b6000806040838503121561372f5761372e613137565b5b600061373d85828601613384565b925050602061374e85828601613703565b9150509250929050565b600080fd5b600080fd5b7f4e487b7100000000000000000000000000000000000000000000000000000000600052604160045260246000fd5b61379a82613242565b810181811067ffffffffffffffff821117156137b9576137b8613762565b5b80604052505050565b60006137cc61312d565b90506137d88282613791565b919050565b600067ffffffffffffffff8211156137f8576137f7613762565b5b61380182613242565b9050602081019050919050565b82818337600083830152505050565b600061383061382b846137dd565b6137c2565b90508281526020810184848401111561384c5761384b61375d565b5b61385784828561380e565b509392505050565b600082601f83011261387457613873613758565b5b813561388484826020860161381d565b91505092915050565b600080600080608085870312156138a7576138a6613137565b5b60006138b587828801613384565b94505060206138c687828801613384565b93505060406138d7878288016132cf565b925050606085013567ffffffffffffffff8111156138f8576138f761313c565b5b6139048782880161385f565b91505092959194509250565b600081519050919050565b600082825260208201905092915050565b6000819050602082019050919050565b60006139488383613456565b60208301905092915050565b6000602082019050919050565b600061396c82613910565b613976818561391b565b93506139818361392c565b8060005b838110156139b2578151613999888261393c565b97506139a483613954565b925050600181019050613985565b5085935050505092915050565b600060208201905081810360008301526139d98184613961565b905092915050565b600067ffffffffffffffff8211156139fc576139fb613762565b5b613a0582613242565b9050602081019050919050565b6000613a25613a20846139e1565b6137c2565b905082815260208101848484011115613a4157613a4061375d565b5b613a4c84828561380e565b509392505050565b600082601f830112613a6957613a68613758565b5b8135613a79848260208601613a12565b91505092915050565b600060208284031215613a9857613a97613137565b5b600082013567ffffffffffffffff811115613ab657613ab561313c565b5b613ac284828501613a54565b91505092915050565b60008060408385031215613ae257613ae1613137565b5b6000613af085828601613384565b9250506020613b0185828601613384565b9150509250929050565b600060a082019050613b2060008301886133d9565b613b2d6020830187613343565b8181036040830152613b3f8186613253565b9050613b4e60608301856131d2565b613b5b60808301846133d9565b9695505050505050565b60008060408385031215613b7c57613b7b613137565b5b6000613b8a858286016132cf565b9250506020613b9b858286016132cf565b9150509250929050565b7f4e487b7100000000000000000000000000000000000000000000000000000000600052602260045260246000fd5b60006002820490506001821680613bec57607f821691505b602082108103613bff57613bfe613ba5565b5b50919050565b7f4552433732313a20617070726f76616c20746f2063757272656e74206f776e6560008201527f7200000000000000000000000000000000000000000000000000000000000000602082015250565b6000613c61602183613207565b9150613c6c82613c05565b604082019050919050565b60006020820190508181036000830152613c9081613c54565b9050919050565b7f4552433732313a20617070726f76652063616c6c6572206973206e6f7420746f60008201527f6b656e206f776e6572206f7220617070726f76656420666f7220616c6c000000602082015250565b6000613cf3603d83613207565b9150613cfe82613c97565b604082019050919050565b60006020820190508181036000830152613d2281613ce6565b9050919050565b7f4552433732313a2063616c6c6572206973206e6f7420746f6b656e206f776e6560008201527f72206f7220617070726f76656400000000000000000000000000000000000000602082015250565b6000613d85602d83613207565b9150613d9082613d29565b604082019050919050565b60006020820190508181036000830152613db481613d78565b9050919050565b7f596f752063616e742062757920796f7572206f776e204e465400000000000000600082015250565b6000613df1601983613207565b9150613dfc82613dbb565b602082019050919050565b60006020820190508181036000830152613e2081613de4565b9050919050565b7f4e4654207468617420796f752061726520747279696e6720746f20627579206960008201527f73206e6f74206c697374656420666f722073616c650000000000000000000000602082015250565b6000613e83603583613207565b9150613e8e82613e27565b604082019050919050565b60006020820190508181036000830152613eb281613e76565b9050919050565b7f596f752068617665206e6f742070617965642074686520636f7272656374207060008201527f7269636500000000000000000000000000000000000000000000000000000000602082015250565b6000613f15602483613207565b9150613f2082613eb9565b604082019050919050565b60006020820190508181036000830152613f4481613f08565b9050919050565b60008190508160005260206000209050919050565b60006020601f8301049050919050565b600082821b905092915050565b600060088302613fad7fffffffffffffffffffffffffffffffffffffffffffffffffffffffffffffffff82613f70565b613fb78683613f70565b95508019841693508086168417925050509392505050565b6000819050919050565b6000613ff4613fef613fea846132ae565b613fcf565b6132ae565b9050919050565b6000819050919050565b61400e83613fd9565b61402261401a82613ffb565b848454613f7d565b825550505050565b600090565b61403761402a565b614042818484614005565b505050565b5b818110156140665761405b60008261402f565b600181019050614048565b5050565b601f8211156140ab5761407c81613f4b565b61408584613f60565b81016020851015614094578190505b6140a86140a085613f60565b830182614047565b50505b505050565b600082821c905092915050565b60006140ce600019846008026140b0565b1980831691505092915050565b60006140e783836140bd565b9150826002028217905092915050565b614100826131fc565b67ffffffffffffffff81111561411957614118613762565b5b6141238254613bd4565b61412e82828561406a565b600060209050601f831160018114614161576000841561414f578287015190505b61415985826140db565b8655506141c1565b601f19841661416f86613f4b565b60005b8281101561419757848901518255600182019150602085019450602081019050614172565b868310156141b457848901516141b0601f8916826140bd565b8355505b6001600288020188555050505b505050505050565b7f4e487b7100000000000000000000000000000000000000000000000000000000600052603260045260246000fd5b7f4e487b7100000000000000000000000000000000000000000000000000000000600052601160045260246000fd5b6000614232826132ae565b915061423d836132ae565b9250828203905081811115614255576142546141f8565b5b92915050565b7f4e487b7100000000000000000000000000000000000000000000000000000000600052603160045260246000fd5b6000614295826132ae565b91507fffffffffffffffffffffffffffffffffffffffffffffffffffffffffffffffff82036142c7576142c66141f8565b5b600182019050919050565b7f596f7520617265206e6f7420746865206f776e6572206f662074686973204e4660008201527f5400000000000000000000000000000000000000000000000000000000000000602082015250565b600061432e602183613207565b9150614339826142d2565b604082019050919050565b6000602082019050818103600083015261435d81614321565b9050919050565b7f4e6674206973206e6f74206c6973746564000000000000000000000000000000600082015250565b600061439a601183613207565b91506143a582614364565b602082019050919050565b600060208201905081810360008301526143c98161438d565b9050919050565b6000819050919050565b60006143f56143f06143eb846143d0565b613fcf565b6132ae565b9050919050565b614405816143da565b82525050565b600060208201905061442060008301846143fc565b92915050565b7f4552433732313a20696e76616c696420746f6b656e2049440000000000000000600082015250565b600061445c601883613207565b915061446782614426565b602082019050919050565b6000602082019050818103600083015261448b8161444f565b9050919050565b7f4552433732313a2061646472657373207a65726f206973206e6f74206120766160008201527f6c6964206f776e65720000000000000000000000000000000000000000000000602082015250565b60006144ee602983613207565b91506144f982614492565b604082019050919050565b6000602082019050818103600083015261451d816144e1565b9050919050565b600081905092915050565b600061453a826131fc565b6145448185614524565b9350614554818560208601613218565b80840191505092915050565b600061456c828561452f565b9150614578828461452f565b91508190509392505050565b7f5072696365206d7573742062652067726561746572207468616e203000000000600082015250565b60006145ba601c83613207565b91506145c582614584565b602082019050919050565b600060208201905081810360008301526145e9816145ad565b9050919050565b7f4552433732313a207472616e736665722066726f6d20696e636f72726563742060008201527f6f776e6572000000000000000000000000000000000000000000000000000000602082015250565b600061464c602583613207565b9150614657826145f0565b604082019050919050565b6000602082019050818103600083015261467b8161463f565b9050919050565b7f4552433732313a207472616e7366657220746f20746865207a65726f2061646460008201527f7265737300000000000000000000000000000000000000000000000000000000602082015250565b60006146de602483613207565b91506146e982614682565b604082019050919050565b6000602082019050818103600083015261470d816146d1565b9050919050565b7f436f756e7465723a2064656372656d656e74206f766572666c6f770000000000600082015250565b600061474a601b83613207565b915061475582614714565b602082019050919050565b600060208201905081810360008301526147798161473d565b9050919050565b7f4552433732313a20617070726f766520746f2063616c6c657200000000000000600082015250565b60006147b6601983613207565b91506147c182614780565b602082019050919050565b600060208201905081810360008301526147e5816147a9565b9050919050565b7f4552433732313a207472616e7366657220746f206e6f6e20455243373231526560008201527f63656976657220696d706c656d656e7465720000000000000000000000000000602082015250565b6000614848603283613207565b9150614853826147ec565b604082019050919050565b600060208201905081810360008301526148778161483b565b9050919050565b7f4552433732313a206d696e7420746f20746865207a65726f2061646472657373600082015250565b60006148b4602083613207565b91506148bf8261487e565b602082019050919050565b600060208201905081810360008301526148e3816148a7565b9050919050565b7f4552433732313a20746f6b656e20616c7265616479206d696e74656400000000600082015250565b6000614920601c83613207565b915061492b826148ea565b602082019050919050565b6000602082019050818103600083015261494f81614913565b9050919050565b7f45524337323155524953746f726167653a2055524920736574206f66206e6f6e60008201527f6578697374656e7420746f6b656e000000000000000000000000000000000000602082015250565b60006149b2602e83613207565b91506149bd82614956565b604082019050919050565b600060208201905081810360008301526149e1816149a5565b9050919050565b600081519050919050565b600082825260208201905092915050565b6000614a0f826149e8565b614a1981856149f3565b9350614a29818560208601613218565b614a3281613242565b840191505092915050565b6000608082019050614a526000830187613343565b614a5f6020830186613343565b614a6c60408301856133d9565b8181036060830152614a7e8184614a04565b905095945050505050565b600081519050614a988161316d565b92915050565b600060208284031215614ab457614ab3613137565b5b6000614ac284828501614a89565b91505092915050565b7f4e487b7100000000000000000000000000000000000000000000000000000000600052601260045260246000fdfea264697066735822122070e51fe7d456976bbbe446635270cf7e34061ef513c52e1b8d5f34ad7ffde21664736f6c63430008120033",
  "devdoc": {
    "events": {
      "Approval(address,address,uint256)": {
        "details": "Emitted when `owner` enables `approved` to manage the `tokenId` token."
      },
      "ApprovalForAll(address,address,bool)": {
        "details": "Emitted when `owner` enables or disables (`approved`) `operator` to manage all of its assets."
      },
      "Transfer(address,address,uint256)": {
        "details": "Emitted when `tokenId` token is transferred from `from` to `to`."
      }
    },
    "kind": "dev",
    "methods": {
      "approve(address,uint256)": {
        "details": "See {IERC721-approve}."
      },
      "balanceOf(address)": {
        "details": "See {IERC721-balanceOf}."
      },
      "getApproved(uint256)": {
        "details": "See {IERC721-getApproved}."
      },
      "isApprovedForAll(address,address)": {
        "details": "See {IERC721-isApprovedForAll}."
      },
      "name()": {
        "details": "See {IERC721Metadata-name}."
      },
      "ownerOf(uint256)": {
        "details": "See {IERC721-ownerOf}."
      },
      "safeTransferFrom(address,address,uint256)": {
        "details": "See {IERC721-safeTransferFrom}."
      },
      "safeTransferFrom(address,address,uint256,bytes)": {
        "details": "See {IERC721-safeTransferFrom}."
      },
      "setApprovalForAll(address,bool)": {
        "details": "See {IERC721-setApprovalForAll}."
      },
      "supportsInterface(bytes4)": {
        "details": "See {IERC165-supportsInterface}."
      },
      "symbol()": {
        "details": "See {IERC721Metadata-symbol}."
      },
      "tokenURI(uint256)": {
        "details": "See {IERC721Metadata-tokenURI}."
      },
      "transferFrom(address,address,uint256)": {
        "details": "See {IERC721-transferFrom}."
      }
    },
    "version": 1
  },
  "userdoc": {
    "kind": "user",
    "methods": {},
    "version": 1
  },
  "storageLayout": {
    "storage": [
      {
        "astId": 25,
        "contract": "contracts/NftMarketplace.sol:NftMarketplace",
        "label": "_name",
        "offset": 0,
        "slot": "0",
        "type": "t_string_storage"
      },
      {
        "astId": 27,
        "contract": "contracts/NftMarketplace.sol:NftMarketplace",
        "label": "_symbol",
        "offset": 0,
        "slot": "1",
        "type": "t_string_storage"
      },
      {
        "astId": 31,
        "contract": "contracts/NftMarketplace.sol:NftMarketplace",
        "label": "_owners",
        "offset": 0,
        "slot": "2",
        "type": "t_mapping(t_uint256,t_address)"
      },
      {
        "astId": 35,
        "contract": "contracts/NftMarketplace.sol:NftMarketplace",
        "label": "_balances",
        "offset": 0,
        "slot": "3",
        "type": "t_mapping(t_address,t_uint256)"
      },
      {
        "astId": 39,
        "contract": "contracts/NftMarketplace.sol:NftMarketplace",
        "label": "_tokenApprovals",
        "offset": 0,
        "slot": "4",
        "type": "t_mapping(t_uint256,t_address)"
      },
      {
        "astId": 45,
        "contract": "contracts/NftMarketplace.sol:NftMarketplace",
        "label": "_operatorApprovals",
        "offset": 0,
        "slot": "5",
        "type": "t_mapping(t_address,t_mapping(t_address,t_bool))"
      },
      {
        "astId": 1073,
        "contract": "contracts/NftMarketplace.sol:NftMarketplace",
        "label": "_tokenURIs",
        "offset": 0,
        "slot": "6",
        "type": "t_mapping(t_uint256,t_string_storage)"
      },
      {
        "astId": 2728,
        "contract": "contracts/NftMarketplace.sol:NftMarketplace",
        "label": "_nftId",
        "offset": 0,
        "slot": "7",
        "type": "t_struct(Counter)1570_storage"
      },
      {
        "astId": 2731,
        "contract": "contracts/NftMarketplace.sol:NftMarketplace",
        "label": "_listedNfts",
        "offset": 0,
        "slot": "8",
        "type": "t_struct(Counter)1570_storage"
      },
      {
        "astId": 2747,
        "contract": "contracts/NftMarketplace.sol:NftMarketplace",
        "label": "mintedNfts",
        "offset": 0,
        "slot": "9",
        "type": "t_mapping(t_uint256,t_struct(Nft)2742_storage)"
      },
      {
        "astId": 2752,
        "contract": "contracts/NftMarketplace.sol:NftMarketplace",
        "label": "ownedNfts",
        "offset": 0,
        "slot": "10",
        "type": "t_mapping(t_address,t_array(t_uint256)dyn_storage)"
      }
    ],
    "types": {
      "t_address": {
        "encoding": "inplace",
        "label": "address",
        "numberOfBytes": "20"
      },
      "t_array(t_uint256)dyn_storage": {
        "base": "t_uint256",
        "encoding": "dynamic_array",
        "label": "uint256[]",
        "numberOfBytes": "32"
      },
      "t_bool": {
        "encoding": "inplace",
        "label": "bool",
        "numberOfBytes": "1"
      },
      "t_mapping(t_address,t_array(t_uint256)dyn_storage)": {
        "encoding": "mapping",
        "key": "t_address",
        "label": "mapping(address => uint256[])",
        "numberOfBytes": "32",
        "value": "t_array(t_uint256)dyn_storage"
      },
      "t_mapping(t_address,t_bool)": {
        "encoding": "mapping",
        "key": "t_address",
        "label": "mapping(address => bool)",
        "numberOfBytes": "32",
        "value": "t_bool"
      },
      "t_mapping(t_address,t_mapping(t_address,t_bool))": {
        "encoding": "mapping",
        "key": "t_address",
        "label": "mapping(address => mapping(address => bool))",
        "numberOfBytes": "32",
        "value": "t_mapping(t_address,t_bool)"
      },
      "t_mapping(t_address,t_uint256)": {
        "encoding": "mapping",
        "key": "t_address",
        "label": "mapping(address => uint256)",
        "numberOfBytes": "32",
        "value": "t_uint256"
      },
      "t_mapping(t_uint256,t_address)": {
        "encoding": "mapping",
        "key": "t_uint256",
        "label": "mapping(uint256 => address)",
        "numberOfBytes": "32",
        "value": "t_address"
      },
      "t_mapping(t_uint256,t_string_storage)": {
        "encoding": "mapping",
        "key": "t_uint256",
        "label": "mapping(uint256 => string)",
        "numberOfBytes": "32",
        "value": "t_string_storage"
      },
      "t_mapping(t_uint256,t_struct(Nft)2742_storage)": {
        "encoding": "mapping",
        "key": "t_uint256",
        "label": "mapping(uint256 => struct NftMarketplace.Nft)",
        "numberOfBytes": "32",
        "value": "t_struct(Nft)2742_storage"
      },
      "t_string_storage": {
        "encoding": "bytes",
        "label": "string",
        "numberOfBytes": "32"
      },
      "t_struct(Counter)1570_storage": {
        "encoding": "inplace",
        "label": "struct Counters.Counter",
        "members": [
          {
            "astId": 1569,
            "contract": "contracts/NftMarketplace.sol:NftMarketplace",
            "label": "_value",
            "offset": 0,
            "slot": "0",
            "type": "t_uint256"
          }
        ],
        "numberOfBytes": "32"
      },
      "t_struct(Nft)2742_storage": {
        "encoding": "inplace",
        "label": "struct NftMarketplace.Nft",
        "members": [
          {
            "astId": 2733,
            "contract": "contracts/NftMarketplace.sol:NftMarketplace",
            "label": "id",
            "offset": 0,
            "slot": "0",
            "type": "t_uint256"
          },
          {
            "astId": 2735,
            "contract": "contracts/NftMarketplace.sol:NftMarketplace",
            "label": "owner",
            "offset": 0,
            "slot": "1",
            "type": "t_address"
          },
          {
            "astId": 2737,
            "contract": "contracts/NftMarketplace.sol:NftMarketplace",
            "label": "uri",
            "offset": 0,
            "slot": "2",
            "type": "t_string_storage"
          },
          {
            "astId": 2739,
            "contract": "contracts/NftMarketplace.sol:NftMarketplace",
            "label": "isListed",
            "offset": 0,
            "slot": "3",
            "type": "t_bool"
          },
          {
            "astId": 2741,
            "contract": "contracts/NftMarketplace.sol:NftMarketplace",
            "label": "price",
            "offset": 0,
            "slot": "4",
            "type": "t_uint256"
          }
        ],
        "numberOfBytes": "160"
      },
      "t_uint256": {
        "encoding": "inplace",
        "label": "uint256",
        "numberOfBytes": "32"
      }
    }
  }
}